:020000040800F2
:1000000000080020D9000008E9210008D5200008D8
:1000100000000000000000000000000000000000E0
:10002000000000000000000000000000292300087C
:100030000000000000000000752200082D230008C9
:10004000EB000008EB000008EB000008EB000008E4
:10005000EB0000083F0C0008EB000008490C00080A
:10006000EB000008EB000008EB000008EB000008C4
:10007000EB000008EB00000800000000EB000008A7
:1000800000000000EB00000800000000000000007D
:10009000EB00000800000000EB000008EB00000887
:1000A000EB000008EB000008EB000008EB00000884
:1000B000EB000008EB000008EB000008EB00000874
:1000C0000448854600F0A8FB00480047B13B000803
:1000D000C046C04600080020044880470448004746
:1000E000FEE7FEE7FEE7FEE7FEE7FEE7A5230008E2
:1000F000C100000830B50B46014600202022012433
:1001000009E00D46D5409D4205D31D469540491B4B
:100110002546954040191546521E002DF1DC30BD94
:1001200010B503461C460C43A40703D009E010C9D0
:10013000121F10C3042AFAD203E00C781C70491C69
:100140005B1C521EF9D210BDD2B201E00270401CFD
:10015000491EFBD270470022F6E710B513460A4647
:1001600004461946FFF7F0FF204610BD0346032260
:100170000870000A491C521EFAD51846704770B51F
:1001800002464A40D50F40004A00ED074008520899
:10019000002814D0002A12D0C40DD30D4102012032
:1001A000C0055202490A520AE41A091812187D348D
:1001B000914201D3641C00E04900002C01DA0020C8
:1001C00070BD0023914201D3891A034340084900BE
:1001D0000028F7D100290AD0914202D10121C90794
:1001E00005E0914201D2012101E00121C943E0056E
:1001F000C018401900F01FF970BD0000F0B50C46A2
:100200005C4085B0E40FE40703944C0000266408CA
:1002100059009446490802460296224321D062467C
:100220000A431ED06200570D4A000E032303550DEA
:10023000012402462C492405781B1B0B360B401861
:1002400023432643614600901C46501AB44103D311
:100250000098401C009002E0921800985B41002832
:1002600003DA0020014605B0F0BD00200121090598
:100270000746864611E064461D46141BB54106D369
:100280006546521BB341744607430C43A646CD074F
:1002900040084908284392185B4105460D43EAD1BE
:1002A0001046184313D06046194650407140084329
:1002B00006D06046101AB34106D20122002306E0A0
:1002C00000220123DB0702E00122D24353100098F1
:1002D00074460105381C6141029C039D0019694167
:1002E00000F0EAF8BFE70000FD03000070B54B0026
:1002F0005B0803430BD04B005C0D00263346654280
:10030000B341D417AD1AA34102DB0020014670BDF2
:1003100012053018514170BD10B5002296231146C8
:1003200000F091F810BD00000EB5054902910021C2
:1003300000910A460B46019100F0CBF803B000BDD6
:1003400033040000C20F410040020123400ADB05D4
:10035000D207090EC0187F2901DA002070479629BC
:1003600003DC9623591AC84001E096398840002AD8
:10037000F4D04042704700004A0009030123090BF2
:100380001B051943094B10B5520D9A4201DA0020A2
:1003900010BD064B34339A4203DC9A1A00F03AF847
:1003A00010BD03495118884010BD0000FF03000034
:1003B000CDFBFFFFF0B51FB40646002082B0054616
:1003C0004024019100901BE0019922460F463046DF
:1003D00000F020F8049A059B801A994110D310462A
:1003E0001946224600F02AFA361A8F410197224612
:1003F00001200021009F00F021FA38184D410090A3
:100400002046641E0028DFDC019B00982946324606
:1004100007B0F0BD10B5202A04DB0846203AD040D2
:10042000002110BD0B46D340D0402024A21A914099
:100430000843194610BD002904DA401C490001D1C7
:1004400040084000704770B40024050C05D110240A
:10045000000402D1002921D01124050E01D100028F
:100460000834050F01D10001241D850F01D1800042
:10047000A41C002801DB4000641C002908D02025B2
:100480002E1B0D46F540A14000D001212943084311
:1004900001061B1B000ADB1D02D5002070BC704743
:1004A000DB05181880180029F8DA401C4900F5D13E
:1004B00070BC40084000704710B5002B08DA0024DB
:1004C000401C614192185B411A4301D14008400031
:1004D00010BDF0B51FB482B005460C0003D008462D
:1004E00002F00EFA02E002F00BFA20300246009011
:1004F0002146284600F0A2F9049B059A04460F46BF
:1005000018431143084314D0184610431BD00098D9
:1005100040210A1A18460599FFF77CFF05460E464A
:10052000009A0599049800F089F9084305D0012044
:1005300004E02046394607B0F0BD0020C11705434E
:100540000E432C43374300990E986305401A7905F2
:10055000E40A00220C43FD0A0A3002D500200146BD
:10056000E9E70105101969410C9C0D9D00196941CD
:10057000FFF7A2FFDFE70000F0B507460846584046
:1005800087B0C00F049048000E4659004008490843
:10059000BC1A884105D2384631461E4617460B46DE
:1005A00002465800400810434DD0300D03904005DE
:1005B0005900400D490D0590401A0290402873DA09
:1005C00018030121000B09050843019004980092CB
:1005D000002806D01146019A49420020904100911E
:1005E0000190029840210A1A0199009800F026F91A
:1005F00005460C466B4607CB00F030F9C019714137
:10060000039A0E0D0023D71756401A467A40164318
:1006100044D0049A002A2DD0029A012A039A15DCAC
:100620001205C01A914101263605001C7141D20FF6
:10063000059ED2070093019202962A462346FFF7B1
:1006400048FF07B0F0BD38463146FAE71605234AA1
:100650000F46B218C01AB74101210905001C4F41CD
:1006600000187F41114618187941E20F10436D19A7
:10067000644113E0E2076D0815436408C2071443A0
:10068000039A01261205C01A91413605001C7141DA
:10069000CE07400830434908C01851412A46234636
:1006A000FFF70AFFCDE7FFE7049801224000C117DA
:1006B000121A00238B4104983146C417381AA141FD
:1006C000EEE730B40124E407634030BC54E730B4B3
:1006D0000124E407614030BC4EE700000000E0FF69
:1006E000F0B51FB488B00B990998002448400999C7
:1006F000C00F490049080991C0070B9900904900B3
:1007000049080B9109990898A64608431CD00B99F3
:100710000A98084318D0099801244000420D480067
:10072000410D099824050003000B204309900B9804
:100730000003000B20430B9050181C494018002266
:1007400001901446104605E0002001460DB0F0BDB2
:10075000032801DA034600E003239C46C11A0AAECF
:100760000AE05F0008ADED5B4F00F75B7D430027BB
:10077000AA187C41491C5B1E6145F2DD410004ABB7
:100780005A522104120C0A43240C401C0828DFDBB7
:10079000019802900099704601910090059B049A7F
:1007A00007990698FFF795FED0E700000DFCFFFFC4
:1007B0004A0009030123090B1B0519430A4B10B515
:1007C000520D9A4202DA0020014610BD064B343326
:1007D0009A4203DC9A1AFFF71DFE10BD034BD21894
:1007E00000F02CF810BD0000FF030000CDFBFFFF60
:1007F00010B5002904DB0124E40740428C41214666
:10080000002B04DB1C460123DB075242A341994223
:1008100000D1904210BD0000064C0125064E05E0B7
:10082000E36807CC2B430C3C98471034B442F7D311
:10083000FFF74AFC304100085041000810B5202A5B
:1008400004DB0146203A9140002010BD9140202356
:100850009C1A0346E3401943904010BD10B5202A6E
:1008600006DBCB170846203A1041C1170B4306E0C0
:100870000B461341D0402024A21A91400843194648
:1008800010BD000070B5054614460E4611A001F0DB
:10089000D7FC1248018A491C8D4212D131462046AC
:1008A00003F0D2FA012E07D12078312805D0322862
:1008B00002D1002000F058F870BD002000F064F86C
:1008C00070BDC189891C8D42FAD121780129F7D1E7
:1008D000417070BD494E2043420A000004000020D0
:1008E00010B50D480B490160FF2105314160002121
:1008F0008160C16001610122416152020162826135
:1009000041620722C2620822C261816200F0FCFEDD
:1009100010BD000000300140E8000020F0B50F4994
:1009200087B0CB6A01221343CB62C96A0C4D1140D8
:1009300044000091295B0191002103910321094F9B
:10094000049102928600B85901A900F099FA295B36
:10095000B859002200F059FB07B0F0BD001002406A
:10096000024100084800002010B5054A4100515AD4
:10097000044A80001058002200F047FB10BD000020
:10098000024100084800002010B5054A4100515AB4
:10099000044A80001058012200F037FB10BD00000F
:1009A000024100084800002010B5044A4100515A95
:1009B000034A8000105800F024FB10BD02410008DB
:1009C0004800002010B5044A4100515A034A8000F3
:1009D000105800F011FB10BD044100084C0000202D
:1009E00070B50446284886B0C36A04221343C36224
:1009F000C36A13400593426B01231A4342630020EC
:100A00006300224DA200224E002920D0012929D1C5
:100A1000E95A029000911F480190B058694600F0D1
:100A20002FFA2D1F2A57FF20C021002A1CDA130796
:100A30001B0F083B9E08184BB600F618F369920787
:100A4000D20E9040834391400B43F36118E0E95A82
:100A5000019002200290009103200390B058694653
:100A600000F00EFA06B070BD96080C4BB600F618F2
:100A700033689207D20E9040834391400B4333601A
:100A8000285700F003FBEDE7001002400441000886
:100A90004C0000200000111000ED00E000E400E038
:100AA00010B505200121000700F0A6FA012800D0AA
:100AB000002010BD70B5FF24052501342D0700224C
:100AC0002146284600F0A1FA052000F0BDF90122D8
:100AD0002146284600F099FA052000F0B5F970BDCE
:100AE000F7B588B0FF216846017320A003C80590C0
:100AF00016460025069105202A460221000700F02F
:100B000084FA0F27052301AA05A90097089800F089
:100B1000CFFE68460079022818D16846017AC0796C
:100B20000C02044312D0B4420ED934460CE0012327
:100B300004AA03A90097089800F0BAFE6846017C51
:100B4000099841556D1CEDB2A542F0D30520012254
:100B50000221000700F059FA0020009000BF401C5D
:100B600000900228FADB28460BB0F0BD0B00000015
:100B700000000000FFB524A1C5B003C94E9E04913A
:100B8000039023A103C901901F4600240291052070
:100B900000F072FA052000220221000700F035FA69
:100BA0000F25052301AA03A90095459800F080FEB2
:100BB0006846007902280CD0641E0520012202211B
:100BC000000700F022FA052000F060FA204649B044
:100BD000F0BD68464079B919884212D3002F06D07B
:100BE00000953B4605AA4699459800F061FE002E07
:100BF000E3D0334605AA00954799459800F058FE82
:100C0000DBE70124E443D8E70A000000000000000D
:100C1000AA0000000000000001490120486170475F
:100C20000004014010B500F0F7F910BD10B500F058
:100C30000BF910BD10B5052000F01EFA10BD10B55F
:100C4000012000F011F910BD10B50120400300F0A3
:100C50000BF902490120087010BD0000400000207F
:100C600010B5052000F012FA10BD0020FFF79CFE21
:100C7000642000F0E9F8F8E770B50546094801225C
:100C80004261C18008A001F0DBFA0524295D0CA0B7
:100C900001F0D6FA641E002CF8DC29780AA001F0D5
:100CA000CFFA70BD04000020436F6E6E65637465FB
:100CB0006420746F206465766963653A0000000003
:100CC000253032582D000000253032580A0000002F
:100CD00070B5074C0025656106A001F0B1FA01204E
:100CE00020706570A570E5702571657170BD00009C
:100CF00004000020446973636F6E6E6563746564FD
:100D00000A00000070B5154602463448344C03789A
:100D10002089401C002B03D0324B1B78002B05D0C0
:100D2000824202D1284603F08FF870BD8242FCD186
:100D3000E06A002811D12CA001F082FAFFF772FFBF
:100D40006062A87CE97C000409060843697C2A7C6F
:100D5000090211430843401E2063A87CE97C00047B
:100D600009060843697C2A7C090211430843606331
:100D7000216B4A1C904204D0A26B411A8918491E6B
:100D8000A1632063E06A401CE062CED0FF25F53508
:100D90002946FFF7AFF90029C7D1FFF743FFA0624B
:100DA000616A461A3046FFF7B7FA01461148FFF765
:100DB000E6F9FFF7C7FA0346324629460EA001F0CE
:100DC0003FFAA16B002902D01AA001F039FAFFF70F
:100DD00029FF60620020A06370BD000002000020B7
:100DE00004000020010000205465737420737461B6
:100DF00072740A0000409C472564207061636B6533
:100E000074732E20456C61707365642074696D6520
:100E10003A202564206D732E204170702074687212
:100E20006F7567687075743A202564206B62707303
:100E30002E0A00002564206C6F7374207061636B50
:100E400065742873290A000031B500F0E5F80446FE
:100E500000F0E2F80099001B8842F9D338BD10B5C4
:100E600001F0A2F810BD000010B504494A69024221
:100E700002D04861FFF7F3FF10BD000000040140FD
:100E8000F8B500230124A2E027469F403A4070D0E5
:100E90004D68022D01D0122D14D1DD08AD002D18A2
:100EA00000952D6A5E07AC46F50E0F26AE46AE40A5
:100EB0006546B543AC460E697546AE4065462E4361
:100EC000009D2E624D68012D05D0022D03D0112DFD
:100ED00001D0122D16D185680326AC465D00AE46C2
:100EE000AE406546B543AC46CE687546AE406546F5
:100EF0002E43866046680D79BE43ED06ED0F9D409A
:100F00003543456006685F000325BD40AE46AE43ED
:100F10000D79B446AE07B60FBE4065462E43066057
:100F2000C6687546AE438D68BD403543C5604D68A3
:100F3000ED004BD5294D6E6B26436E639E08284D00
:100F4000B6007519AC46AD689E07360F0F27B7403F
:100F5000BD4305273F07B84201D1002715E0214FC7
:100F6000B84201D1012710E01F4FB84202D1022739
:100F70000BE02BE01D4FB84201D1032705E01C4FC9
:100F8000B84201D1052700E00627B7402F43654648
:100F9000AF60184D2E684F689643FF0300D5164387
:100FA0002E606E684F689643BF0300D516436E608F
:100FB000AE684F689643FF0200D51643AE60EE68F8
:100FC0004F689643BF0200D51643EE605B1C0A686B
:100FD0001546DD4000D057E7F8BD00000010024084
:100FE000000001400004005000080050000C0050B8
:100FF000001C0050000401400069084000D001209E
:10100000704742694A4042617047002A01D08161BD
:101010007047816270470000014800687047000017
:101020006000002002480168491C01607047000010
:101030006000002010B5064801680222914301605B
:10104000032000F007F800F016F8002010BD0000A3
:101050000020024010B5044600F0CCF87D21C90004
:10106000FFF748F800F080FD00222146501E00F0F6
:1010700017F8002010BD7047C106C90E0120884036
:10108000014908607047000080E100E0C106C90E18
:1010900001208840014908607047000000E100E03D
:1010A00010B501F0A3F810BDF8B505464E480E4640
:1010B0000068C007C00FB0420AD24B480168490817
:1010C0004900314301600068C007C00FB0426FD1D2
:1010D0002878464C800705D5E068F0218843A96848
:1010E0000843E0602878C00752D06868022817D00B
:1010F000002818D02168032818D04907002957DA9A
:10110000E168890889000143E160FFF785FF6968AC
:101110000746022912D003291CD0002926D032E02C
:1011200021688903EAE721688905E7E78901E5E79E
:10113000FFF772FFC11B2E48814222D8E0680007EA
:10114000800F0228F4D123E0FFF766FFC11B284877
:10115000814216D8E0680007800F0328F4D117E019
:10116000FFF75AFFC11B224881420AD8E0680007F6
:10117000800FF5D10CE0FFF74FFFC11B1C488142E7
:1011800001D90320F8BDE0680007800F0128F2D1E3
:1011900015480168C907C90FB1420BD30168490856
:1011A0004900314301600068C007C00FB04201D060
:1011B0000120F8BD2878400706D5E068072109021C
:1011C0008843E9680843E0602878000707D5E068AD
:1011D0000721C90288432969C9000843E060032048
:1011E000FFF738FF0020F8BD002002400010024049
:1011F0008813000010B500F031F80549C968054AA8
:101200000906090F515CC8400349086010BD000081
:10121000001002401F4100085C00002010B5FFF7DD
:10122000E9FF0449C968044A4905490F515CC840AF
:1012300010BD0000001002401F41000810B5FFF76C
:10124000D9FF0449C968044A8904490F515CC84060
:1012500010BD0000001002401F41000810B51A4ADE
:101260005068D3680004410F0C200340174805D094
:10127000042B06D0082B0BD00C2B0BD0491C88401C
:1012800010BD1068C00601D5114810BD114810BD31
:10129000114810BDD068D1688002104B000F185C57
:1012A0000902D368890F01242404491C234204D174
:1012B0001268D20603D5064A02E0074A00E0054A52
:1012C0005043FEF717FF10BD0010024000800000E1
:1012D00000093D000024F40000127A0016410008C5
:1012E000FEB504460078FA4DC0074DD0E868000707
:1012F000800F022807D0E8680007800F032809D173
:10130000E868C00306D5286880033DD560680028DA
:1013100075D039E0012062680004824203D1296857
:101320000143296014E0052301211B0489049A422A
:101330002A6805D182432A602A680A432A60EEE7B8
:1013400082432A602A680240009228688843286005
:10135000606800280CD0FFF75FFE064604E0FFF748
:101360005BFE801B64287DD828688003F7D50BE0DE
:10137000FFF752FE064604E0FFF74EFE801B64288E
:10138000F1D828688003F7D42078800740D5E86832
:101390001F270007800F3F02012807D0E8680007D9
:1013A000800F032809D1E868C00306D428684007E5
:1013B00017D5E068012822D113E0E168092000294F
:1013C00016D02A6882430A432A60FFF725FE0646A4
:1013D00004E0FFF721FE801B0228C4D828684007DC
:1013E000F7D568682169B8430902084368600FE0CF
:1013F000296881432960FFF70FFE064605E096E065
:10140000FFF70AFE801B0228ADD828684007F7D4F2
:101410002078B04FC0064BD5E8680007800F09D090
:10142000E0690028286835D038432860FFF7F4FDCC
:1014300006461DE02868800502D5E069002876D0C0
:101440006868072149038843616A084368606868DF
:10145000218C0002000A0906084368600320FFF798
:10146000F9FD25E0D9E0FFF7D7FD801B022887D8DA
:1014700028688005F7D56868072149038843616AB1
:10148000084368606868218C0002000A0906084366
:1014900068600DE0B8432860FFF7BEFD064604E033
:1014A000FFF7BAFD801B022897D828688005F7D47B
:1014B0002078894E000724D560690028306910D053
:1014C000012108433061FFF7A7FD009005E0FFF719
:1014D000A3FD0099401A022896D830698007F6D5F6
:1014E0000FE0400840003061FFF796FD009005E0F6
:1014F000FFF792FD0099401A022885D830698007CD
:10150000F6D42078800633D5A069744A002819D013
:10151000A96801200143A960696B01436963106AEE
:101520006F4908431062FFF777FD009006E0E9E09D
:10153000FFF772FD0099401A02286ED8A86880074C
:10154000F6D515E0A86840084000A860106A644914
:10155000C94308401062FFF75FFD009005E0FFF708
:101560005BFD0099401A022857D8A8688007F6D476
:10157000207840076FD5002002900190A86BC00032
:1015800006D4A86B012109070843A8630120029033
:1015900054480068C00513D45248016839430160BB
:1015A00001200190FFF738FD009005E0FFF734FDC2
:1015B0000099401A642830D84A480068C005F5D51B
:1015C000A068B84202D1306938430CE00121890299
:1015D000002803D00522120290420CD03069B84393
:1015E0003061306988433061A068002816D0FFF769
:1015F00013FD00900DE03069B84330613069084355
:101600003061E0E7FFF708FD0099411A3648814252
:1016100071D830698005F5D50EE06CE0FFF7FCFC71
:10162000009006E0FFF7F8FC0099411A2E4881422D
:1016300061D830698005F5D40198002803D0294885
:101640000168B94301600298002804D0A96B012009
:1016500000078143A963A06A002851D0E9680907FF
:10166000890F03294ED0012636060228286805D0A6
:10167000B0432860FFF7D0FC04463EE0B04328604A
:10168000FFF7CAFC074604E0FFF7C6FCC01B0228B0
:1016900031D828688001F7D4616B206BEA68084371
:1016A000E16AFD231B049A4311430843E86028685C
:1016B00030432860FFF7B0FC044604E0FFF7ACFCC1
:1016C000001B022817D828688001F7D518E0000011
:1016D00000100240000100004010024000000140E4
:1016E000012000000070004088130000FFF794FC08
:1016F000001B022801D90320FEBD28688001F5D413
:101700000020FEBD0120FEBD70B5040006D02546B8
:101710004035687C0026002802D005E0012070BD1D
:101720002E74204600F032F80220687420680168A8
:10173000402291430160A168606822690843E16822
:1017400011430843616901220843A1695202114013
:101750000843E1690843216A0843A16A08432168F4
:101760000860A0690421000C0840616A08432168F0
:1017700048602168E06A08612068C169920091436D
:10178000C161666501206874002070BDF0B5006815
:10179000434987B088427DD14248C16A0124214330
:1017A000C162C16A21400591C16A02263143C1620A
:1017B000C16A31400591C16A2143C162C16A2140B9
:1017C0000591C16A2143C162C16A21400591C16A84
:1017D0002143C162C16A21400591C16A2143C162AE
:1017E000C16A21400591416B821411434163871501
:1017F000002505200194039569460007009704958C
:101800000294FFF73DFB0520002239460007FFF751
:10181000FCFB082003270090019669460397029677
:1018200004952148FFF72CFB4020009005200295ED
:1018300069460397019604950007FFF721FB802076
:1018400000900520029569460397019604950007CC
:10185000FFF716FB052001946946000703970096E1
:1018600004950294FFF70CFB0520012202210007DA
:10187000FFF7CBFB0D4801A90094A1C105206946E3
:1018800000070495FFF7FCFA002203210520FFF76B
:1018900007FC00E002E00520FFF7F8FB07B0F0BD11
:1018A0000030014000100240000400500000111000
:1018B000F8B5044600276846078026464036707C07
:1018C000012802D0707C22287ED100290CD0002A69
:1018D0000AD0002B08D0307C012875D0012030744C
:1018E000707C012802D003E00120F8BD3220707422
:1018F0006765A263A387E3872163A386E386A76462
:10190000E7640125A06A6D03A84207D12068016839
:10191000A9430160206801682943016020680168CB
:10192000490603D401684022114301600122FF20CF
:10193000E168D20205309142616866D1002904D085
:1019400081420CD1E08E012809D1206B21680088EA
:10195000C860206B801C2063E08E401EE086E08E15
:10196000002811D1A06AA84246D12068016801224E
:101970001203114301603FE02068C068A16B08803A
:10198000A06B801CA063B0E0002202212046069BD1
:1019900000F071FC00287DD1206B21680088C860B0
:1019A000206B801C2063E08E401E0004000CE0864B
:1019B00008D1A06AA84205D120680168012212035B
:1019C00011430160002200E0CCE001212046069B8B
:1019D00000F051FC00287FD12068C068A16B08800E
:1019E000A06B801CA063E08F401EE087E08E002883
:1019F000CAD1606800287BD1002201212046069BC5
:101A000000F039FC002867D1B6E7002904D08142F4
:101A10000BD1E08E012808D1206B411C2163216885
:101A20000078C860E08E401EE086E08E002815D168
:101A3000A06AA84205D1206801680122120311435F
:101A40000160002201212046069B00F014FC0028C2
:101A500042D12068C068A16B087046E000220221D4
:101A60002046069B00F007FC002835D1206B411C66
:101A7000216301782068C160E08E401E0004000CE4
:101A8000E0860AD1A06AA84207D120680168012235
:101A9000120300E020E011430160002201212046F2
:101AA000069B00F0E8FB002816D12068C168A06BF7
:101AB000421CA2630170E08F401EE087E08E002888
:101AC000CCD16068002813D1002201212046069B5A
:101AD00000F0D1FB002802D00320F8BD08E0206808
:101AE000C168A06B421CA2630170E08F401EE087BA
:101AF000A06AA8420FD1002201212046069B00F0D7
:101B0000BAFB002802D0606D02210EE02068C06898
:101B1000694608800888012280212046069B00F043
:101B2000AAFB002804D0606D202108436065D3E73C
:101B300001207074A06AA84211D120688168C9434D
:101B4000C9060CD4616D0222114361650168A94385
:101B5000016020680168294301603774C4E6377466
:101B60000020BAE70220B8E7094910B5401E8842B4
:101B700001D9012010BD074C60610321081F00F04E
:101B800035FB0020A06107202061002010BD00006F
:101B9000FFFFFF0000E000E070B5040005D025461F
:101BA0006035687A002802D006E0012070BD002070
:101BB0002872204600F024F802206872206801682C
:101BC000490849000160204600F0BAFC606A00281C
:101BD00002D0204600F025FC206841680922D2028C
:101BE00091434160206881682A2291438160206886
:101BF0000168012211430160204600F077FC70BDAE
:101C000030B5144887B0C26A01210A43C262C26A71
:101C10000A400592C26A0A43C262C26A0A40059239
:101C2000826B4B041A438263022004240525019031
:101C3000029103902D070094049469462846FFF70B
:101C40001FF908200090694604942846FFF718F908
:101C500007B030BD00100240FFB5064604466036AE
:101C6000707A81B00F46012802D0707A122868D1AC
:101C7000002F1BD0002A19D0307A012861D0012012
:101C800030720020E066707A122812D02220707222
:101C9000254640352A836A830122A0681203FF216A
:101CA00090420AD12069002805D026E0012005B025
:101CB000F0BD3220EBE724480AE07F22002817D04D
:101CC00001210907884204D12069002813D03F2050
:101CD000A883A88B0090688B0022401E6883202177
:101CE0002046049B00F036FD002808D00320DEE7E4
:101CF0002069002801D0AA83EBE7A983E9E7012046
:101D0000A1680003814202D12069002810D0206818
:101D1000416A0098014039707F1C688B0028DAD135
:101D2000707A32280BD00120707200203072BEE72A
:101D30002068406A009908403880BF1CEDE71220F7
:101D4000F2E70220B3E70000FF010000FFB50546FF
:101D500004466035687A81B00E46012802D0687A60
:101D600022284ED1002E1DD0002A1BD0287A01280F
:101D700047D0012028720020E066687A222814D01B
:101D800012206872274640373A827A82788A002287
:101D9000401E788280212046049B00F0DBFC002856
:101DA0001CD104E0012005B0F0BD3220E9E701209C
:101DB000A1680003814202D12069002810D0216867
:101DC00030788862761C788A0028DFD10022402192
:101DD0002046049B00F0BEFC002808D00320E2E768
:101DE00030882168C005C00D8862B61CEBE7687AB0
:101DF000322804D00120687200202872D3E7222004
:101E0000F9E70220CFE7000070B501460A78401CD0
:101E1000042A32D10278052A30D03E2A31D0FF2A56
:101E20002BD1821CC078137800021843364BC3189C
:101E300033D00D4608350E2B40D03448344C007852
:101E40000F2B4DD0112B18D1002816D131A000F046
:101E5000F7F9A078002802D02079002839D0E0785E
:101E600000280AD06079002807D168782A78010212
:101E70001143618132A000F0E3F970BDFEF728FF45
:101E800070BD8178801C0129FAD1C2788378110253
:101E90001943801DFEF7F0FE70BD2F489179007840
:101EA00013790128507905D000021843D21DFEF79E
:101EB000E9FC70BD000218430932F8E710792B786D
:101EC000801EC1B26878D21D00021843FEF71AFFC7
:101ED00070BD68782A780102114321811FA0CAE7EA
:101EE0000028F5D1A1780120002902D0217900290C
:101EF00007D0E1780029EBD061790029E8D1607141
:101F000070BD207170BD0000FFF3FFFF01000020D5
:101F1000040000204556545F424C55455F474154EC
:101F2000545F444953435F524541445F43484152E3
:101F30005F42595F555549445F524553500A00006E
:101F4000525820436861722048616E646C65202598
:101F50003034580A0000000000000020545820438C
:101F60006861722048616E646C6520253034580ABF
:101F70000000000070B50A4801F0C4FD08480830B0
:101F800001F0C0FD074D00248C2060434119044836
:101F900001F0C7FD641CE4B2052CF5D370BD000050
:101FA000680000204001002008B50020009025E0D6
:101FB000164801F0C2FD002802D0FEF72DFE08BD34
:101FC0006946124801F0C5FD009980221048083189
:101FD000FEF786FD0106090E06D0009888221154EE
:101FE00000F044F8002804D00848009901F08DFD65
:101FF00004E006480099083001F093FDFEF70CFE5E
:10200000FEF74EFD0028D3D108BD00006800002077
:10201000E800002008B500200090FEF70BFE10E05D
:1020200069460D4801F095FDFEF71AFE009808304C
:10203000FFF7EAFEFEF7FEFD07480099083801F0B9
:1020400070FD054801F079FD0028E9D0FFF7ACFFED
:10205000FEF706FE08BD00007000002010B5024823
:1020600001F06BFD10BD0000700000200146027AF7
:102070000831042A01D0012070478030007A897825
:10208000C01E814201D0022070470020704700002E
:10209000FEB507460D480E461C4615460A21006847
:1020A000FEF728F8014601A800F0B4F9E4B2EBB25B
:1020B0003246394606480094FEF75CFD002804D0FD
:1020C00001A800F099F90028F1D0FEBDFC400008FD
:1020D000E8000020FEE7000010B525480024007845
:1020E0008AB000281FD023A007C807AB07C3002170
:1020F000084601F0E3FB22A000F0A2F8002307A8A5
:102100000D210694059401910290039404941A46BB
:1021100000941946184601F07AF901461FA000F014
:102120008FF80AB010BD1EA000F08AF823A103C9E1
:10213000079008910020FEF727FC7D200001059004
:1021400006902820019002903C21012004918003F8
:10215000039407AB00220094014601F068F80028C0
:10216000DFD018A000F06CF86420FEF75FFDD8E720
:102170000100002009424C455F4C4F435F4731004E
:1021800047656E6572616C20446973636F76657232
:1021900061626C65204D6F646520000025640A0053
:1021A000436C69656E742043726561746520436F8A
:1021B0006E6E656374696F6E0A000000F13301E1B1
:1021C000800300004572726F72207768696C652029
:1021D0007374617274696E6720636F6E6E65637489
:1021E000696F6E2E0A000000704700008307FF220F
:1021F000DB0E9A408907090E994000280BDA000788
:10220000000F0838830808489B001818C3699343D7
:102210000B43C3617047830804489B001B18186870
:10222000904308431860704700ED00E000E400E0D0
:1022300010B5FDF775FF10BD10B5FDF78EFF10BD91
:102240000FB400B5A1B023AB80216846229A00F0FC
:102250003FFB82B2FF232D3369460548FFF776FD29
:10226000002801D0FEF701FD21B008BC04B01847DA
:10227000780000207047F8B51D4616460F46044604
:10228000FEF7CAFE314626464036009000291ED091
:1022900043E0681C1BD0002D05D0FEF7BDFE009961
:1022A000401AA84213D920684168E0229143416056
:1022B0002068026840218A43026023E021680A689E
:1022C00082430A6021680A6802430A601FE02068AE
:1022D000816838468843DCD124E0681C1DD0002D7D
:1022E00006D0FEF799FE01460098081AA84214D9B4
:1022F00020684268E0218A434260206801684022E9
:10230000914301600120A16A40038142D6D001209F
:102310007074002030740320F8BD2068816838464E
:102320008843DAD00020F8BD7047000010B5FEF7F2
:1023300079FE02484168491C416010BD4000002000
:1023400070B5164C94B0A06B21040843A0631448E8
:1023500001680322D2029143C2148918016002204D
:1023600000900A90400401260C9003960001102171
:1023700000250D900B9504916846FEF7B1FF0320F0
:102380000F901095119501210E9612950EA8FEF74B
:102390008BFE606B3043606314B070BD0010024070
:1023A0000070004010480168821511430160C16847
:1023B0000E4A1140C16001680D4A114001608168F8
:1023C000490849008160016801229204914301603B
:1023D000C168FD2212049143C160002101610549D9
:1023E000C003886070470000001002400C40FF8866
:1023F000F6FFF6FE00ED00E010B50446FEF712FC15
:102400002168401A6168401C814201D2012010BD40
:10241000002010BD10B504464160FEF703FC2060AB
:1024200010BD10B5818CC90707D001684A68012327
:102430005B049A43836A1A434A60818C890707D5F3
:1024400001684A6801231B049A43C36A1A434A601D
:10245000818C490707D501684A6801239B049A4388
:10246000036B1A434A60818C090707D501684A68E3
:102470000123DB039A43436B1A434A60818CC906EC
:1024800007D50268916801231B039943836B1943A5
:102490009160818C890607D501688A6801235B03F6
:1024A0009A43C36B1A438A60818C490612D503682C
:1024B0005A6801210905046C8A4322435A60026C60
:1024C0008A4207D10268516803235B059943436C34
:1024D00019435160818C090607D501684A680123B8
:1024E000DB04806C9A4302434A6010BD70B5044619
:1024F00000680068114D000708D501212B46002215
:102500004905204600F026F900280CD12068006813
:1025100040070AD501212B4600228905204600F0FC
:1025200019F9002801D0032070BD00212046603039
:102530000172E16601214172002070BDF05500007A
:10254000F8B504462669A368E76933436669002045
:102550003E4325683343734A2E680146724F3E401E
:102560001E432E6025686B6803263603B343E66876
:1025700033436B602568A369954201D0266A3343D3
:10258000AE680B273F02BE431E43AE60674E256810
:10259000674BB5420CD1DB689B079B0F06D0012B24
:1025A0003AD0022B36D0032B20D11EE001201DE0B3
:1025B000604EB5420AD1DB680C26334016D0042B9E
:1025C0002AD0082B26D00C2B10D10EE095420DD12D
:1025D000DE6803239B021E4008D001239B02F61AEB
:1025E0001AD0F61A16D09E4200D10820504E403E16
:1025F000954247D1002811D0022817D004282CD0AA
:10260000082829D16068FDF78FFE02460B4600209E
:1026100049491CE00220E9E70420E7E76068FDF78C
:1026200083FE05460E46FEF7F9FD1DE03068C00644
:10263000606806D5FDF778FE02460B4600203F494C
:1026400005E0FDF771FE02460B4600203C49FDF710
:10265000D5FDFDF791FEE860F8BD6068FDF764FE0A
:1026600005460E46FEF7FAFDFDF75EFE0822FDF771
:102670003DFE2A463346FDF7C1FDFDF77DFE21688C
:10268000C860F8BD0122E369D203934227D1030059
:1026900000F04DF90906090C161C16161621160035
:1026A000FEF7BCFD14E0FEF7C9FD11E0306861687B
:1026B000C00601D5234800E02348FDF71BFD81B289
:1026C0000A0912010807400F1043D8E7FEF7C6FDBC
:1026D00040006168F1E7012000046168EDE7030054
:1026E00000F025F909070A0D06170606061D060063
:1026F000C7E7FEF793FD0EE0FEF7A0FD0BE03068A4
:102700006168C00601D5114800E01148FDF7F2FCF0
:10271000A1E7FEF7A3FD6168FDF7ECFCAFE710460B
:102720006168F3E700480040F369FFEF00380140BB
:102730004010024000440040000060418084CE41CF
:102740008084EE4100127A000048E80100093D0053
:102750000024F400F8B51D4616460F460446FEF761
:102760005BFC3146264660360090002916D041E0D9
:10277000681C13D0002D06D0FEF74EFC01460098D1
:10278000081AA8420AD92068016880229143016092
:10279000206801682022914301601AE02068C16925
:1027A00038468843E4D12AE0681C23D0002D06D0A7
:1027B000FEF732FC01460098081AA8421AD9206890
:1027C00001688022914301602068026820218A43C9
:1027D000026020680168FF22013291430160206895
:1027E00081684908490081600120707200203072C0
:1027F0000320F8BD2068C16938468843D4D0002042
:10280000F8BD0000F0B5274C85B02078002803D033
:10281000FFF762FC002020702348244C4078244DB0
:10282000002823D12068234E234F002802D030787F
:10283000002806D02068002808D03878002803D067
:1028400004E001F00BFC01E001F0D2FB206800285D
:102850000CD03078002809D03878002806D02878A5
:10286000002803D1FEF780F800F098FF0020FEF763
:10287000A9F8002813D10020FEF7A4F80028FAD008
:10288000206800280BD02878002808D014220BA13B
:102890006846FDF745FC1421684601F0F3FA05B0DF
:1028A000F0BD0000040000200000002018000020FF
:1028B00005000020080000200900002030313233DC
:1028C0003435363738394142434445464748494A0A
:1028D0007CB51D4616460C0001D0611E00E00021AB
:1028E00001910090054B6A462946304600F0F6F803
:1028F000002C02D0009A002111707CBD1932000812
:102900002021020C01D010211046020A01D01046ED
:102910000839020901D01046091F820801D010466B
:10292000891E420801D0881E7047081A704730B4CB
:102930007446641E2578641CAB4200D21D46635D5C
:102940005B00E31830BC184702E008C8121F08C13A
:10295000002AFAD170477047002001E001C1121F20
:10296000002AFBD170470000F0B51FB486B009986B
:10297000089A030D0021024314D05148514A1818F7
:10298000504305141198012810981AD0281A401C99
:1029900000264D4F4D49009601910490002812DA0F
:1029A000444211E01198012449A3012801D1109853
:1029B000C1430698119A84600360C26041600BB005
:1029C000F0BD4042E4E70446210500203F4A001CD8
:1029D00051410391029012E0E00707D032463B4696
:1029E00001990098FDF77CFE0191009032463B462C
:1029F00010461946FDF774FE06460F466410002C7B
:102A0000EAD10498039B0028029A0999089806DAEB
:102A1000FDF766FE019B009AFDF762FE05E0FDF7FB
:102A2000EDFB019B009AFDF7E9FB04460E460022F0
:102A3000284BFDF7DDFE03D80020C043014607E028
:102A40000022254B20463146FDF796FDFDF7B0FEEE
:102A5000102409E0002C0ADB0A220023FDF7AAFC5F
:102A6000079B30321A55641E02460A43F2D11122E6
:102A7000641C079B121B1C19119B012B03D0012303
:102A800008430ED10AE0084304D011201090002022
:102A9000119077E71098151A6D1E0BE0109882427E
:102AA00002DD00236D1C03E0824201DA00236D1E6B
:102AB000002BEED0069811998260C16030C07EE78D
:102AC00001FCFFFF104D0000000014400000F03F2B
:102AD000300000000000F0430000E03FFFB597B079
:102AE000064600251BE2252876D100242746F74913
:102AF000049400E00443761C32780120203A904090
:102B00000842F7D130782A280ED0022230780146C8
:102B10003039092916D804990A2359433039401805
:102B20001443761C0490F1E7189802C80491189099
:102B3000002904DA012040030443484204900220A3
:102B40000443761C30782E2814D104200443707876
:102B5000761C2A2809D11898761C80C8189009E09C
:102B60000A214F43303FC719761C3078014630396F
:102B70000929F5D930786C2810D006DC4C281AD0F9
:102B800068280ED06A2817D104E0742813D07A2858
:102B900012D110E00120400504430CE00121090599
:102BA00001E0032109050C437178814203D1012022
:102BB00000052418761C761C307866280BD013DCB0
:102BC00058287DD009DC00287BD04528F6D046283F
:102BD000F4D047281AD1A9E118E0632835D0642839
:102BE00070D0652812D1A1E170286CD008DC67286C
:102BF000F1D069287DD06E280DD06F2806D1BCE0B9
:102C000073282ED0752873D0782859D01A9A19991C
:102C100090476D1C82E16002400F022809D0032812
:102C20000DD00428189801680DD00D60001D189073
:102C300074E11898EA1701680D604A60F6E7189881
:102C400001680D80F2E70D70F0E718986A46017888
:102C50001172001D18900020507202A800900120EF
:102C600005E0189802C8189000200091C043610741
:102C70000ED5002101E00199491C0191B94213DAF6
:102C80008142F8DB019A0099895C0029F3D10BE0BD
:102C9000002101E00199491C01918142FADB019A6E
:102CA0000099895C0029F5D1019904981A9B471A6B
:102CB00021463846199A00F099FA4019019903E023
:102CC00051E030E115E050E0451807E00098009928
:102CD0000078491C00911A9A199990470198401E52
:102CE0000190401CF2D1214638461A9B199A12E1F4
:102CF00037E00A200021009001916002410F022973
:102D000007D0189A01CA1892C2179446032908D00E
:102D10000AE01898C01DC108C90005C91891944659
:102D200007E000B2C2179446042902D140B2C1178D
:102D30008C4600226146944506DA0A46002140424C
:102D400091418C462D2102E0210504D52B216A46B4
:102D50001173012103E0E10701D02021F7E702917F
:102D600056E00A200AE0102008E010200090002120
:102D7000042004430191082703E008200021019169
:102D800000906002410F022907D0189A01CA1892D8
:102D900000229446032908D008E01898C01DC108F5
:102DA000C90005C91891944603E080B2042900D1F6
:102DB000C0B20021029121072AD531780D917029E6
:102DC00006D0009A1021019B4A401A4305D00EE01C
:102DD00040216A461173012108E06146014306D093
:102DE00030216A4611730D99517302210291009AA4
:102DF0000821019B4A401A430AD16146014301D18F
:102E0000610705D530216A46117301217F1E0291A9
:102E10003178582904D02EA10E910DA90D910DE005
:102E200030A1F9E76146019B009AFDF7C3FA0E9BBA
:102E30008C469B5C0D9A521E0D92137061460143A5
:102E4000F0D10D9805A9081A20300190600703D52C
:102E500001200004844300E001270198874201DD3E
:102E6000381A00E0002001990090411802980918D2
:102E70000498401A0490E00306D421461A9B199A3C
:102E8000049800F0B3F94519002706E003A81A9A40
:102E9000C05D199990476D1C7F1C02988742F5DB35
:102EA000E0030CD521461A9B199A049800F09EF96C
:102EB000451904E01A9A3020199990476D1C009921
:102EC000481E00900029F5DC1FE0000009280100E1
:102ED0003031323334353637383961626364656690
:102EE0000000000030313233343536373839414252
:102EF00043444546000000000D980D990078491C98
:102F00000D911A9A199990476D1C0199481E0190CC
:102F10000029F1DC4DE100F059F94519761C3078B3
:102F2000002800D0DFE528461BB0F0BD600700D4C4
:102F300006271898C01DC108C90048680A680831EA
:102F4000C30FDB071891190001D09CA108E02105EF
:102F500001D59BA104E0E10701D09AA100E09AA16C
:102F60004300109130785B0865280CD006DC4528BA
:102F700009D046281DD0472841D141E0662818D005
:102F800067283CD13CE00021112F01DB112000E03B
:102F9000781C0191009008A911A8FFF7E5FC13998E
:102FA00005910021119A15927F1C129801970091AA
:102FB00050E00120C00703900120019008A900976C
:102FC00011A8FFF7D1FC139A149905920022119BC6
:102FD000009212981593059A0192002901D010468B
:102FE00002E0791C40180190381A01D5019804E0DC
:102FF0004042401E0090781C0190C01B029043E0AC
:10300000012F00DA01270021112F01DD112000E03E
:1030100038460191009008A911A8FFF7A5FC139963
:103020000591119A0021129815920091019721079C
:103030000CD40599B94201DB019900E00191012905
:1030400004DD159A491E515C302906D0B84201DAD8
:10305000011D05DA0121029115E00199491EEDE7F4
:10306000002805DC0099411800910199091A03E034
:10307000019A411C914200DD01910099401A401CC7
:1030800002900120C0070390200706D402990198FE
:10309000814202DB0020C043029000206946C877CD
:1030A00007AF012103980337C907884224D00220C3
:1030B00011902B201290039800280CDA40420390C4
:1030C0002D20129007E00A210398FDF713F8303104
:1030D0007F1E039039701199481E11900029F2DC6F
:1030E00003980028EFD1791E1298087030782021BB
:1030F00008404530BF1E387006A8C01BC01D039095
:1031000010980078002800D00120019941180298F9
:10311000C0170918039809180498401A401E049013
:10312000E00306D421461A9B199A049800F05EF831
:10313000451910980078002803D01A9A19999047D9
:103140006D1CE00324D521461A9B199A049800F0BF
:103150004DF845191CE00098002807DB00990598F8
:10316000884203DD1598405C199901E019993020D7
:103170001A9A904700986D1C401C00900298401EBF
:103180000290002804D11A9A2E20199990476D1C9C
:103190000199481E01900029DDDC05E038781A9A73
:1031A0007F1C199990476D1C0399481E03900029B4
:1031B000F4DC21461A9B199A0498ACE62D00000015
:1031C0002B0000002000000000000000F8B50446BD
:1031D00000251E461746880404D405E03946202001
:1031E000B0476D1C641EF9D52846F8BDFFB50446EE
:1031F000002581B01E46C80301D5302700E02027F6
:10320000880404D505E038460399B0476D1C641E58
:10321000F9D5284605B0F0BD4A68002A06D00A68EC
:10322000531C0B6010704868401E48607047F0B532
:103230008DB06C46159F169E189D2080618022716E
:1032400006221946601DFEF7F3FF68461299C17207
:10325000139981811499C1810782468217998182CD
:10326000C5821822002107A8FEF7E6FF3F21684625
:1032700081839C21C18318200A900F20089006A802
:103280000B9001200C900994002107A800F060FB2E
:10329000002802DAFF200DB0F0BD6846007EFAE794
:1032A00070B58AB00E466946087015461C4607225E
:1032B000002101A8FEF7C0FF1822002103A8FEF795
:1032C000BBFF3F20694688818A20C8810120069083
:1032D00001A80790072005910890002103A800F09D
:1032E00037FB002802DAFF200AB070BD684600797B
:1032F0000028F9D16846817942790802104330806C
:103300006846017AC2790802104328806846817AAB
:10331000427A0802104320800020E5E7F0B589B02A
:103320006C460E9F0F9E20706170A2701D46072292
:10333000002101A8FEF780FF1822002103A8FEF754
:103340007BFF3F20A0818A20E0810320069001A816
:103350000790072008900594002103A800F0F8FAD0
:10336000002802DAFF2009B0F0BD68460079002885
:10337000F9D168468179427908021043288068466D
:10338000017AC2790802104338806846817A427A0D
:103390000802104330800020E5E7F0B58FB01D46ED
:1033A000134602466846179F169E0270417010220F
:1033B00019466C46801CFEF73BFF684685741499DD
:1033C000C1741599017505A901313046FCF7CEFE8F
:1033D000684647761822002108A8FEF72DFF3F21F6
:1033E00068460184862141841A200B9007A80C901E
:1033F00001200D900A94002108A800F0A9FA0028E5
:1034000002DAFF200FB0F0BD6846007FFAE7FFB593
:1034100091B01D9E1B9DA9190E31282902D9422069
:1034200015B0F0BD6C46207010A9088908810127ED
:10343000022212A9601CFEF7FBFE10A98889888170
:10344000E01C022213A9FEF7F3FE694614984871A6
:103450001A988871CD7102A82A461C99FEF7E8FED9
:103460000835E8B22654401CC5B2601932461E9990
:10347000FEF7DEFEA819C5B210A9888F88876019EB
:1034800002221FA9FEF7D4FE20A9AD1C0888EDB2C8
:10349000088060190222FEF7CBFEAD1CEDB21822A7
:1034A00000210BA8FEF7C8FE3F20694688858320CF
:1034B000C8850AA80F90002110970E950D940BA8AF
:1034C00000F046FA002801DAFF20A9E708A8007AF0
:1034D000A6E77FB58EB06846018F169E01876C46C1
:1034E0001D46204602220EA9FEF7A2FE6846818FE5
:1034F0008187A01C02220FA9FEF79AFE10A801885E
:103500000180201D022210A9FEF792FE68468571F7
:10351000012D21D01025E01D2A463146FEF788FEF8
:103520001822002107A8ED1DFEF786FE3F21684600
:103530008183FF211731C1830F2008A931C106A85B
:103540000B9001200C90002107A800F001FA002840
:1035500004DAFF2012B070BD0225DCE76846007E69
:10356000F8E700B587B01822002101A8FEF764FE35
:103570003F2168468180FF210231C18005900120F2
:103580000690002101A800F0E3F9002802DAFF20EC
:1035900007B000BD68460078FAE7FFB59E1DA7B0EA
:1035A0001D461746802E02D942202BB0F0BD20A820
:1035B000818B81836C462046022227A9FEF738FEC4
:1035C00020A8018C0184A01C022228A9FEF730FE4D
:1035D000684607714571A01D2A463099FEF728FEFE
:1035E000F5B21822002120A8FEF726FE3F2120A8D0
:1035F0000180FF210731418026A8249001202590D9
:1036000023952294002120A800F0A2F9002801DAD5
:10361000FF20CAE720A8007EC7E7FFB5561DA7B068
:103620001F461546802E02D942202BB0F0BD20A89F
:10363000818B81836C462046022227A9FEF7F8FD84
:1036400020A8018C0184A01C022228A9FEF7F0FD0D
:1036500068460571601D2A463946FEF7E9FDF5B258
:103660001822002120A8FEF7E7FD3F2120A80180B5
:10367000FF21223141800F2021A931C126A82490A9
:1036800001202590002120A800F062F9002801DA2D
:10369000FF20CAE720A8007EC7E730B514468FB0E8
:1036A0000A46142C02D942200FB030BD694608806A
:1036B0004A800C716D4622461946681DFEF7B8FD1A
:1036C0001822002108A8FEF7B7FD3F2069460884AC
:1036D000FF202430488407A80C900120641D0D9021
:1036E0000A950B94002108A800F032F9002801DAAD
:1036F000FF20D9E76846007FD6E700B589B06A4663
:10370000107051701822002102A8FEF795FD3F208D
:103710006A4610810F2050810220059001A8069072
:10372000012007900492002102A800F011F900285E
:1037300002DAFF2009B000BD68460079FAE770B5EB
:1037400013468D1CA8B00246802D02D9422028B015
:1037500070BD6846027641760A4606AC01261946D7
:103760001A30FEF765FDEDB2182200216846FEF71B
:1037700063FD3F21684601800C21418026A804900A
:103780000021059603950294684600F0E1F80028B0
:1037900001DAFF20DBE720A8007ED8E73EB50FA0C6
:1037A000006802900E4801680A2041436846FEF70F
:1037B00031FE0C4C04E06846FEF71EFE002809D1DD
:1037C000208902AB801C81B20222E088FFF725FF2E
:1037D0004628F0D0012060703EBD000001000000CE
:1037E000FC4000080400002070B586B0064601A821
:1037F0000C46009005AB04AA02A903A800F01DF82E
:1038000005062D0E14D168460089000A30706846FE
:10381000008902022280684680880006000F0001AD
:1038200002432280684680880007000F02432280FE
:10383000FEF7F0FB284606B070BDF0B589B015461E
:103840000E4607461C46092200216846FEF7F4FC96
:103850001822002103A8FEF7EFFC042168468181AD
:103860000121C1810020059006906846079009203B
:103870000890002103A800F06BF8002802DAFF206E
:1038800009B0F0BD684600780028F9D16846407854
:1038900038706846408830806846007928706846ED
:1038A000817942790802104320806846017AC27902
:1038B00008020E99104308800020E1E730B58FB070
:1038C0000D460446202200216846FEF7B5FC6846F6
:1038D00004701F2C00D91F24224604462946401C90
:1038E000FEF7A6FC1822002109A8FEF7A5FC082176
:1038F000684681840921C18420200C9008A80D907D
:1039000001200E900B94002109A800F021F8002856
:1039100002DAFF200FB030BD08A80078FAE77CB5C6
:103920008905890D8002014368460180827001216A
:10393000017114461D4603226946401DFEF778FCBE
:1039400023460422294601A800F0CAF87CBD0000E5
:10395000F3B50446408821788005800D890208432C
:1039600085B25D488BB00A210068FCF7C3FB0746AF
:10397000002605A8049600F0C5F8FDF75BF90AE0FB
:103980006946564800F0E5F854480099083800F0B8
:10399000C8F8FEF709FB5148083800F0A5F80228DE
:1039A000EEDBFDF75DF9227B61882088A368FFF7D5
:1039B000B6FF0C98002802D000200DB0F0BD002FFB
:1039C00000D10127394607A8FEF724FD07A8FEF716
:1039D00013FD002870D1FEF741FB0028F6D1FDF75A
:1039E00029F904A93D4800F0B4F804980346017A87
:1039F0000833042946D18030027A5878D91CD21E67
:103A00000E2818D00F2804D0102855D03E2839D1C0
:103A10001EE0C8788B7800021843A8424CD1606839
:103A20000F2803D00878002846D12BE060690BE00E
:103A30006261206918E08B784E7818023043A84202
:103A40003AD1C91C6069D21E9042F1DC0246EFE710
:103A500008786368984215D16069521E904200DC74
:103A600002466261491C2069FEF7E2FB1B4804998B
:103A7000083800F04AF805A9184800F0D3F9FDF716
:103A8000EFF899E71548083800F057F8002808D0F3
:103A9000124800F052F8002803D010480499083862
:103AA00001E005A8049900F03CF80496FEF77CFAC2
:103AB000FDF7D6F88AE7FFE70499002903D0074805
:103AC000083800F022F805A9044800F0ABF9FDF72A
:103AD000C7F80020C04370E7FC40000870000020D9
:103AE00010B5FEF7D5FA10BD03460020EFF31081A4
:103AF00072B61A6801E01268401C9A42FBD181F349
:103B000010887047006040607047EFF3108272B613
:103B100003680B6048600160086882F310884160A8
:103B20007047EFF3108272B6086043684B604160E3
:103B3000486882F3108801607047EFF3108172B615
:103B40000268824201D1012000E0002081F3108848
:103B5000704730B50D46EFF3108472B601682960E6
:103B6000006800F008F8296800200860296884F3DC
:103B70001088486030BDEFF3108172B60CC8083869
:103B80001A6005C881F310884260704730B50D4651
:103B9000EFF3108472B6416829604068FFF7EBFFCD
:103BA000296800200860296884F31088486030BDC7
:103BB00058A103C998B00791069058A103C909916B
:103BC0000890FDF737FA0020FCF7A8FE0021084610
:103BD000FCF706FFFEF7B4FB00F076FAFCF780FE78
:103BE000FEF7C8F9FCF766FF05A904A8FFF7FCFD7E
:103BF000FCF760FF6846828A017C4AA0FEF720FB42
:103C00006846007C01254C4C302800D9257060782E
:103C1000002837D0062208A914A8FEF709FB14AA29
:103C200006210020FFF78BFD010002D043A0FEF724
:103C300007FBFFF796FC002802D048A0FEF700FB28
:103C4000627813A8012A227812A91ED0012A2AD04C
:103C500003460A4616A90320FFF722FB002802D0DC
:103C600043A0FEF7EDFA474800211022009202908F
:103C70000723039501910A460120FFF78EFB0500FB
:103C80001AD01CE0062206A9C6E7012A04D0034682
:103C90000A4616A90120DFE70091072201900021C2
:103CA00016AB012005E00091019016AB0722002120
:103CB0000420FFF733FBD1E733A0FEF7C1FA6078A9
:103CC000012801D036A005E03DA0FEF7B9FA002D8D
:103CD0001DD043A0FEF7B4FA04210120FFF70DFD2B
:103CE00020210AA8FCF737FA64231E220AA94448B7
:103CF000FDF7B2FF1E210AA800F0C4F8FEF78AF90A
:103D0000FEF780FDFEF786F9FEF77CFDE8E73DA0B3
:103D1000E0E70000F13301E180220000F13301E12E
:103D20008003000048577665722025642C20465792
:103D30007665722025640A000000002053657474C3
:103D4000696E672042445F41444452206661696C59
:103D50006564203078253032782E0A00474154546B
:103D60005F496E6974206661696C65642E0A0000A3
:103D70004741505F496E6974206661696C65642EC5
:103D80000A00000040E20100424C45205374616388
:103D90006B20496E697469616C697A65642E0A00EA
:103DA000434C49454E543A20424C4520537461637C
:103DB0006B20496E697469616C697A65640A0000F8
:103DC0005345525645523A20424C45205374616344
:103DD0006B20496E697469616C697A65640A0000D8
:103DE0004572726F72207768696C652061646469DE
:103DF0006E6720736572766963652E0A00000000A5
:103E0000780000205365727669636520616464659B
:103E100064207375636365737366756C6C792E0AC1
:103E20000000000038B50C46054607E0694620460C
:103E3000FFF7ACFE28460099FFF767FE2046FFF724
:103E40007CFE0028F2D038BD70B50D46064601292B
:103E500001D0002411E00178312905D0322903D0A6
:103E600007A0FEF7EDF970BD0020FCF79DFD70BDC9
:103E7000315D03A0FEF7E4F9641CAC42F8DB70BDD1
:103E800025630000F0B50D463849394C097889B0F2
:103E900001290DD061890346491C89B22A46E08870
:103EA000FFF7FBFB294633A0FEF7CAF909B0F0BDC6
:103EB00035490978002950D03448FF2705680A2081
:103EC000454301AEF537142231A101A8FCF728F9CA
:103ED000A06969460875020A4A75020C8A75020EC5
:103EE000CA75002805D12FA0FEF7AAF9FCF79AFEA3
:103EF000E061294606A8FEF78DFA04E006A8FEF761
:103F00007BFA002808D1009614230022E189A089B9
:103F1000FFF743FB6428F1D0A069401CA061D2D018
:103F20003946FCF7E7F80029CDD1FCF77BFE20628B
:103F3000E169401A0090FCF7EFF901461C48FCF7D4
:103F40001EF9FCF7FFF9034639461AA0009AFEF75E
:103F500077F9FCF767FEE061B5E700902B46002299
:103F6000E189A089FFF719FB9CE700000100002010
:103F70000400002053454E44494E4720256420420A
:103F800079746573210A000002000020FC400008DB
:103F9000303132333435363738394142434445467F
:103FA00000000000546573742073746172740A0019
:103FB00000409C472564207061636B6574732E20FC
:103FC000456C61707365642074696D653A20256481
:103FD000206D732E20417070207468726F75676851
:103FE0007075743A202564206B6270732E0A00008D
:103FF00010B50C4C86B0E078002811D10AA0FEF76D
:104000001FF911A30FCB049301AB07C301A80090C4
:104010000223114A0121E088FFF75BFA0120E070DA
:1040200006B010BD040000205374617274207265E4
:104030006164696E6720525820436861722048614C
:104040006E646C650A000000669A0C200008969E5B
:10405000E2119EB1E2F273D9FFFF000010B50C4CE3
:1040600086B0A078002811D10AA0FEF7E9F811A3C4
:104070000FCB049301AB07C301A800900223114AA0
:104080000121E088FFF725FA0120A07006B010BDDD
:104090000400002053746172742072656164696E5B
:1040A0006720545820436861722048616E646C65D3
:1040B0000A000000669A0C200008969EE2119EB14C
:1040C000E1F273D9FFFF000010B50B480949016008
:1040D000E1214902416000218160C160016181618B
:1040E0000C214161FDF758FD002801D0FCF7BDFD12
:1040F00010BD00000044004078000020E8030000EC
:104100000700200000200000000000000000010265
:10411000030406070809030406080C1018203000E1
:10412000000000010203040102030406070809005D
:1041300050410008000000207800000048290008D5
:10414000C8410008780000208807000058290008AE
:10415000000100000100000000000000000000005D
:10416000000000000000000000000000000000004F
:10417000000000000000000000000000000000003F
:10418000000000000000000000000000000000002F
:104190000000000000000000000000500008005077
:1041A000E8030000000000000000000080841E0002
:1041B00000000000000000000000000000000000FF
:0841C0000000000000000000F7
:04000005080000C12E
:00000001FF
