:020000040800F2
:1000000078070020D5000008FD170008D517000864
:1000100000000000000000000000000000000000E0
:10002000000000000000000000000000571A000857
:10003000000000000000000055180008591A0008D0
:10004000E7000008E7000008E7000008E7000008F4
:10005000E7000008BF080008E7000008C90800081A
:10006000E7000008E7000008E7000008E7000008D4
:10007000E7000008E700000800000000E7000008B3
:1000800000000000E7000008000000000000000081
:10009000E700000800000000E7000008E700000893
:1000A000E7000008E7000008E7000008E700000894
:1000B000E7000008E7000008E7000008E700000884
:1000C0000348854600F0C4F800480047B9250008F9
:1000D000780700200448804704480047FEE7FEE711
:1000E000FEE7FEE7FEE7FEE7D11A0008C1000008C0
:1000F00030B50B46014600202022012409E00D46C0
:10010000D5409D4205D31D469540491B2546954047
:1001100040191546521E002DF1DC30BDF0B51FB45C
:100120000646002082B005464024019100901BE065
:10013000019922460F46304600F078F8049A059B54
:10014000801A994110D310461946224600F05EF8F5
:10015000361A8F410197224601200021009F00F0AE
:1001600055F838184D4100902046641E0028DFDC09
:10017000019B00982946324607B0F0BD0549064A62
:1001800008685043054A80180860400870470149D4
:1001900008607047540000206D4EC64139300000A1
:1001A00010B503461C460C43A40703D009E010C950
:1001B000121F10C3042AFAD203E00C781C70491CE9
:1001C0005B1C521EF9D210BDD2B201E00270401C7D
:1001D000491EFBD270470022F6E710B513460A46C7
:1001E00004461946FFF7F0FF204610BD421C017877
:1001F000401C0029FBD1801A704703460322087077
:10020000000A491C521EFAD51846704710B5202A1C
:1002100004DB0146203A9140002010BD914020238C
:100220009C1A0346E3401943904010BD10B5202AA4
:1002300004DB0846203AD040002110BD0B46D340D5
:10024000D0402024A21A91400843194610BD000056
:10025000064C0125064E05E0E36807CC2B430C3C19
:1002600098471034B442F7D3FFF72EFF2C2700082D
:100270004C2700080EB5027869460A7101880623EA
:100280000A1269464A7102798A7181880A1269469E
:10029000CA71027A0A72008900220012487201A80B
:1002A000009004480189808801F01BFF002800D0DD
:1002B00047200EBD04000020F0B58BB01B2468461B
:1002C0000476C5264676D5278776A525C5760221EC
:1002D000017700224277B42282779A22C277E12204
:1002E00008A80270112242703A228270CF22C27096
:1002F000802202716E22427136228271C1713948A8
:1003000000900723012206A9022001F06CFE0028BC
:1003100064D168460476C5214176D5218176C576BB
:100320000227077700264677FC2181778F21C17746
:10033000E12108A80170112141704A218170CF216B
:10034000C170A0210171782141713E218171E221AA
:10035000C17124491020891C059103900090214807
:10036000029604960196001F012306AA02218088A6
:1003700001F06AFD002831D168460476C521417636
:10038000D5218176C5760777467736218177AC21EE
:10039000C177E12108A80170112141704B218170C2
:1003A000CF21C1708021017144710A2181713421F2
:1003B000C1710C491020091D039005911220009075
:1003C00004220848029204960196001F062306AAFA
:1003D0000221808801F038FD002800D047200BB0B2
:1003E000F0BD000008000020F0B591B01B2608A861
:1003F0000671C5274771D5248471A525C5710221D1
:10040000017200214172D02181728221C172E222E7
:1004100002731122427377228273E422C273402254
:1004200002741A22427481744221C1748848009077
:100430000A23012209A9022001F0D5FD00287DD15F
:100440001B2108A801714771D5218171A521C171B6
:100450000224047200214172E3228272A922C27234
:10046000E22202731122427377228273E422C27362
:1004700020220274552242742E228274A322C27456
:10048000734A0094921C724D102604200491059228
:1004900001910223039602900A3D09AA1946688930
:1004A00001F0D2FC0028CAD10E2108A80175E11E76
:1004B000417568496846C186002108A801764176E1
:1004C0008176654A6846828710A808900DAB07912F
:1004D0000720059101220696029301900492039150
:1004E00000900FABA989688901F009FD0028A6D109
:1004F0001B2108A80171C5214171D5218171A52158
:10050000C17102210172002444720B228272842282
:10051000C272E2220273112242738B228273E4229E
:10052000C27380220274C422427420228274CD22BB
:10053000C2742A460E320420049400E084E005923E
:100540000396019400910290032309AA688901F09F
:100550007BFC002878D10F2108A80175611F417527
:100560004F21C9016846C18608A804764476210A4D
:100570008176394968468187102110A8069107269F
:1005800005940127089007940DA8019602A90096EA
:1005900091C10FAB3A46E989688901F0B0FC0028A7
:1005A00052D11B2108A80171C5214171D522827148
:1005B000A522C27102230372447273228272A022A6
:1005C000C272E2220273112242738C228273E422ED
:1005D000C273602202740B2242748174C7742A466B
:1005E0001032102100930420059203910494019489
:1005F000029009AA1946688901F026FC002823D137
:10060000062108A80175C91F4175272109026846FE
:10061000C18608A804764476210A81760E49684688
:100620008187102110A806910594089007940DA8C1
:10063000019602A9009691C10FAB0122298A68890F
:1006400001F05DFC002800D0472011B0F0BD000093
:100650000E0000202F2700000429000010B50D48CF
:100660000B490160FF210531416000218160C160BB
:1006700001610122416152020162826141620722ED
:10068000C2620822C261816200F08FFD10BD0000CD
:10069000003001406400002010B5044A4100515A66
:1006A000034A8000105800F00FFA10BD1027000810
:1006B0002800002030B587B0040007D11648C36A6F
:1006C00004221343C362C06A10400590134A6000BD
:1006D000105A0090012200200392A200104B0290B9
:1006E000002913D001290FD10E480190985869466E
:1006F00000F02EF9094D00222D1F28570F2100F080
:1007000037FA285700F02AFA07B030BD0190985800
:10071000694600F01DF9F7E70010024010270008B5
:10072000280000200000211010B50520012100073D
:1007300000F0CAF9012800D0002010BD70B5FF24D8
:10074000052501342D0700222146284600F0C1F975
:10075000052000F0E1F801222146284600F0B9F911
:10076000052000F0D9F870BDF3B587B00E46FF2123
:10077000684601731FA003C8059000250691052057
:100780002A460221000700F0A4F90F27052301AA39
:1007900005A91A48009700F0DDFD68460079022897
:1007A00018D16846017AC0790C02044312D0B442D1
:1007B0000ED934460CE0012304AA03A90F48009780
:1007C00000F0C8FD6846017C079841556D1CEDB2EC
:1007D000A542F0D3052001220221000700F079F99B
:1007E0000020009000BF401C00900228FADB284641
:1007F00009B0F0BD0B000000000000006400002004
:10080000FFB524A003C8C5B00390049123A003C87A
:1008100001901F46154600240291052000F094F92E
:10082000052000220221000700F053F90F260523BE
:1008300001AA03A91B48009600F08CFD68460079C8
:1008400002280CD0641E052001220221000700F0BE
:1008500040F9052000F082F9204649B0F0BD684615
:100860004079E919884212D3002D06D02B4605AAFB
:1008700000960C48459900F06DFD002FE3D00096DE
:100880003B4605AA0748469900F064FDDBE70124D2
:10089000E443D8E70A00000000000000AA000000BE
:1008A00000000000640000200149012048617047F9
:1008B0000004014010B5052000F046F910BD10B548
:1008C000012000F039F810BD10B50120400300F000
:1008D00033F802490120087010BD00001C00002000
:1008E00010B5052000F03AF910BD000004480122BF
:1008F000426141800520401E0028FCDC704700005A
:10090000040000200348002141610122027041706F
:10091000704700000400002031B500F0E1F8044603
:1009200000F0DEF80099001B8842F9D338BD10B5FD
:1009300000F0CAFE10BD000010B504494A69024229
:1009400002D04861FFF7F3FF10BD00000004014032
:10095000F8B500230124A2E027469F403A4070D01A
:100960004D68022D01D0122D14D1DD08AD002D18D7
:1009700000952D6A5E07AC46F50E0F26AE46AE40DA
:100980006546B543AC460E697546AE4065462E4396
:10099000009D2E624D68012D05D0022D03D0112D32
:1009A00001D0122D16D185680326AC465D00AE46F7
:1009B000AE406546B543AC46CE687546AE4065462A
:1009C0002E43866046680D79BE43ED06ED0F9D40CF
:1009D0003543456006685F000325BD40AE46AE4323
:1009E0000D79B446AE07B60FBE4065462E4306608D
:1009F000C6687546AE438D68BD403543C5604D68D9
:100A0000ED004BD5294D6E6B26436E639E08284D35
:100A1000B6007519AC46AD689E07360F0F27B74074
:100A2000BD4305273F07B84201D1002715E0214FFC
:100A3000B84201D1012710E01F4FB84202D102276E
:100A40000BE02BE01D4FB84201D1032705E01C4FFE
:100A5000B84201D1052700E00627B7402F4365467D
:100A6000AF60184D2E684F689643FF0300D51643BC
:100A70002E606E684F689643BF0300D516436E60C4
:100A8000AE684F689643FF0200D51643AE60EE682D
:100A90004F689643BF0200D51643EE605B1C0A68A0
:100AA0001546DD4000D057E7F8BD000000100240B9
:100AB000000001400004005000080050000C0050ED
:100AC000001C0050000401400069084000D00120D3
:100AD0007047002A01D08161704781627047000031
:100AE00001480068704700003C000020024801688F
:100AF000491C0160704700003C00002010B506480A
:100B00000168022211430160032000F007F800F0A1
:100B100019F8002010BD00000020024010B5044666
:100B200007487D21C9000068FFF7E2FA00F06EFD7A
:100B300000222146501E00F01BF8002010BD0000CE
:100B40003800002070470000C106C90E012088400F
:100B5000014908607047000080E100E0C106C90E4D
:100B600001208840014908607047000000E100E072
:100B700010B500F045FE10BDF8B5054653480E46C9
:100B80000068C007C00FB0420AD250480168490847
:100B90004900314301600068C007C00FB0426FD107
:100BA00028784B4C800705D5E068F0218843A96878
:100BB0000843E0602878C00752D06868022817D040
:100BC000032818D02168012818D08905002957DA90
:100BD000E168890889000143E160FFF781FF6968E6
:100BE0000746022912D003291CD0012926D033E060
:100BF00021688903EAE721688901E7E74907E5E712
:100C0000FFF76EFFC11B3348814223D8E06800071D
:100C1000800F0228F4D123E0FFF762FFC11B2D48AB
:100C2000814217D8E0680007800F0328F4D117E04D
:100C3000FFF756FFC11B274881420BD8E068000729
:100C4000800F0128F4D10BE0FFF74AFFC11B2148B8
:100C5000814201D90320F8BDE0680007800FF3D17D
:100C60001A480168C907C90FB1420BD90168490880
:100C70004900314301600068C007C00FB04201D095
:100C80000120F8BD2878400706D5E0680721090251
:100C90008843E9680843E0602878000707D5E068E2
:100CA0000721C90288432969C9000843E06000F0B0
:100CB00017F8E168084A0906090F515CC84007495E
:100CC00008600320FFF72AFF0020F8BD0020024043
:100CD000001002408813000012270008380000208E
:100CE00010B5184AD1680C20084004280BD00828F9
:100CF00010D00C2810D050680004410F0120C00310
:100D0000491C884010BD1068C00601D50E4810BDB2
:100D10000E4810BD0E4810BD88020E4B000F185C27
:100D20000902D368890F491CDB0301D5084A05E095
:100D30001268D20601D5044A00E0044A5043FFF786
:100D4000D7F910BD0010024000093D000024F40056
:100D500000127A0022270008F8B504460078FE4DFC
:100D6000C0074AD0E8680007800F022807D0E8686B
:100D70000007800F032809D1E868C00306D528685A
:100D800080033AD56068002873D036E0012062689D
:100D90000004824203D129680143296011E0052340
:100DA00001211B0489049A422A6802D10A432A605D
:100DB000F1E782432A602A6802400092286888434B
:100DC0002860606800280CD0FFF78AFE064604E021
:100DD000FFF786FE801B64287ED828688003F7D53D
:100DE0000BE0FFF77DFE064604E0FFF779FE801B6F
:100DF0006428F1D828688003F7D42078800741D58B
:100E0000E8681F270007800F3F02012807D0E86825
:100E10000007800F032809D1E868C00306D42868BA
:100E2000400717D5E068012823D113E0E0680028C7
:100E300017D029680922914301432960FFF750FE2A
:100E4000064604E0FFF74CFE801B0228C4D8286841
:100E50004007F7D568682169B8430902084368600C
:100E600010E02868400840002860FFF739FE064679
:100E700005E095E0FFF734FE801B0228ACD8286817
:100E80004007F7D42078C00672D5E868B34E000753
:100E9000800F0AD0E06900282868B1495AD0084379
:100EA0002860FFF71DFE074644E02868800502D54C
:100EB000E069002874D0606A69683140884212D9BC
:100EC00000F0DCFC0028AFD16868616AB0430843D9
:100ED00068606868000200E0DCE0218C000A090616
:100EE000084368600FE06968B1430143696068685E
:100EF000218C0002000A090608436860606A00F05D
:100F0000BDFC002890D1606A410B0120C003491C40
:100F10008840E96809060A0F9249895CC8409249ED
:100F200008600320FFF7FAFD22E0FFF7D9FDC01BA0
:100F300002288BD828688005F7D56868616AB043B5
:100F4000084368606868218C0002000A09060843AB
:100F500068600DE088432860FFF7C2FD064604E0A4
:100F6000FFF7BEFD801B022888D828688005F7D4CB
:100F700020787E4E000723D560690028306910D0A4
:100F8000012108433061FFF7ABFD074604E0FFF79E
:100F9000A7FDC01B02287DD830698007F7D50FE078
:100FA00001E1400840003061FFF79AFD074604E088
:100FB000FFF796FDC01B02286CD830698007F7D474
:100FC0002078400760D5A86B0027C00005D4A86B27
:100FD000012109070843A863012765480168C9057D
:100FE00011D40168821511430160FFF779FD00906B
:100FF00005E0FFF775FD0099401A64284AD85C485F
:101000000068C005F5D55648A268824203D131690F
:101010000143316111E001218902002A07D0052333
:101020001B029A4203D132690A433261EFE7326907
:1010300082433261306988433061A06800280ED055
:10104000FFF74EFD009006E0FFF74AFD0099411AB8
:10105000484881421ED830698005F5D50DE0FFF77C
:101060003FFD009006E0FFF73BFD0099411A414823
:1010700081420FD830698005F5D4002F04D0A96BC8
:10108000012000078143A9632078800630D53A48C3
:10109000421400E080E0A169002916D0AB6801216C
:1010A0000B43AB606B6B0B436B63016A11430162D3
:1010B000FFF716FD064604E0FFF712FD801B02282D
:1010C0006AD8A8688007F7D512E0A96849084900DE
:1010D000A960016A91430162FFF702FD064604E040
:1010E000FFF7FEFC801B022856D8A8688007F7D4BB
:1010F000A06A002855D0E9680907890F032952D052
:10110000012636060228286805D0B0432860FFF77C
:10111000E7FC044642E0B0432860FFF7E1FC0746E5
:1011200004E0FFF7DDFCC01B022835D828688001E9
:10113000F7D4216BE06AEA680843616BFD231B0466
:101140009A4311430843E860286830432860FFF75A
:10115000C7FC044617E000000010024000E0000059
:101160000001000012270008380000204010024053
:10117000007000408813000000000140FFF7B0FC41
:10118000001B022808D828688001F7D509E0FFF77E
:10119000A7FC001B022801D90320F8BD28688001A4
:1011A000F5D40020F8BD0120F8BD70B5040006D0CC
:1011B00025464035687C0026002802D005E0012045
:1011C00070BD2E74204600F033F802206874206849
:1011D0000168402291430160A16860682269084368
:1011E000E16811430843616901220843A169520281
:1011F00011400843E1690843216A0843A16A084392
:1012000021680860A0690421000C0840616A084355
:10121000216848602168E06A08612068C16992001D
:101220009143C161666501206874002070BD0000B3
:10123000F0B50068434987B088427DD14248C16A11
:1012400001242143C162C16A21400591C16A02267D
:101250003143C162C16A31400591C16A2143C16213
:10126000C16A21400591C16A2143C162C16A21401E
:101270000591C16A2143C162C16A21400591C16AD9
:101280002143C162C16A21400591416B821411431F
:1012900041638715002505200194039569460007E1
:1012A000009704950294FFF753FB0520002239466E
:1012B0000007FFF70EFC08200327009001966946FF
:1012C0000397029604952148FFF742FB40200090C7
:1012D0000520694603970196049502940007FFF7DD
:1012E00037FB802000900520029569460397019600
:1012F00004950007FFF72CFB0520019469460007C1
:101300000397009604950294FFF722FB0520012223
:1013100002210007FFF7DDFB0D4801A90094A1C1E0
:101320000520694600070495FFF712FB0022032100
:101330000520FFF71DFC00E002E00520FFF70EFC92
:1013400007B0F0BD00300140001002400004005022
:1013500000001110F8B504460027684607802646AD
:101360004036707C012802D0707C22287ED1002972
:101370000CD0002A0AD0002B08D0307C012875D070
:1013800001203074707C012802D003E00120F8BDF8
:10139000322070746765A263A387E3872163A38605
:1013A000E386A764E7640125A06A6D03A84207D11C
:1013B00020680168A9430160206801682943016031
:1013C00020680168490603D4016840221143016086
:1013D0000121FF20E268C90205308A42616866D1B6
:1013E000002904D081420CD1E08E012809D1206B64
:1013F00021680088C860206B801C2063E08E401E3E
:10140000E086E08E002843D1A06AA84246D1206839
:10141000016801221203114301603FE02068C068A7
:10142000A16B0880A06B801CA063B0E000220221A9
:101430002046069B00F0B6FA00287DD1206B21687B
:101440000088C860206B801C2063E08E401EE08610
:10145000E08E002808D1A06AA84205D12068016862
:101460000122120311430160002200E0CCE00121BF
:101470002046069B00F096FA00287FD12068C068BD
:10148000A16B0880A06B801CA063E08F401EE087EA
:10149000E08E0028CAD1606800287BD1002201219B
:1014A0002046069B00F07EFA002867D1B6E70029A7
:1014B00004D081420BD1E08E012808D1206B411C61
:1014C000216321680078C860E08E401EE086E08ECF
:1014D000002845D1A06AA84205D1206801680122F0
:1014E000120311430160002201212046069B00F0F7
:1014F00059FA002842D12068C068A16B087046E004
:10150000002202212046069B00F04CFA002835D12B
:10151000206B411C216321680078C860E08E401E6A
:10152000E086E08E00280AD1A06AA84207D1206890
:1015300002680121090300E020E00A430260002262
:1015400001212046069B00F02DFA002816D12068C4
:10155000C268A06B411CA1630270E08F401EE0874F
:10156000E08E0028CCD16068002813D10022012130
:101570002046069B00F016FA002802D00320F8BD92
:1015800008E02068C168A06B421CA2630170E08F74
:10159000401EE087A06AA8420FD100220121204608
:1015A000069B00F0FFF9002802D0606D02210EE0DA
:1015B0002068C0686946088008880122802120468A
:1015C000069B00F0EFF9002804D0606D202108434D
:1015D0006065D3E701207074A06AA84211D1206829
:1015E0008168C943C9060CD4616D0222114361654B
:1015F0000168A943016020680168294301603774CC
:10160000C4E637740020BAE70220B8E7094910B5EC
:10161000401E884201D9012010BD074C60610321A2
:10162000081F00F0EDF80020A061072020610020D5
:1016300010BD0000FFFFFF0000E000E010B5421CFD
:101640000078042814D11078052812D03E2813D031
:10165000FF280DD1D0789178000208430C49921CE4
:10166000C84205D1507911790002084300F03EF9D3
:1016700010BDFFF747F910BD9178901C0129FAD1F0
:10168000C278837811021943801DFFF72FF910BD2E
:10169000ECF3FFFF70B50A4800F038FF0848083047
:1016A00000F034FF074D00248C20604341190448AA
:1016B00000F03BFF641CE4B2052CF5D370BD0000C4
:1016C00044000020BC00002008B50020009024E069
:1016D000154800F036FF002802D0FFF7E5F808BDF6
:1016E0006946114800F039FF009880210830FFF763
:1016F0003BF80106090E06D000988822115400F02C
:1017000041F8002804D00848009900F002FF04E0E6
:1017100005480099083000F008FFFFF7C5F8FFF70B
:1017200003F80028D4D108BD4400002008B50020EB
:101730000090FFF7BFF810E069460D4800F00DFF7C
:10174000FFF7CEF800980830FFF778FFFFF7B2F800
:1017500007480099083800F0E8FE054800F0F1FE5F
:101760000028E9D0FFF7B0FFFFF7BAF808BD000086
:101770004C00002010B5024800F0E3FE10BD000050
:101780004C0000200146027A0831042A01D00120D1
:1017900070478030007A8978C01E814201D00220D3
:1017A000704700207047FEB50E4607461C4615469A
:1017B0006421684600F0D6F9E3B2EAB23146384611
:1017C000FFF71EF8002804D0684600F0BDF9002895
:1017D000F2D0FEBDFEE7000001B582B002A8009085
:1017E00005480223018A0022408900F07AFC002883
:1017F00000D047200EBD000004000020704700000C
:101800008307FF22DB0E9A408907090E99400028C2
:101810000BDA0007000F0838830808489B001818E7
:10182000C36993430B43C3617047830804489B001B
:101830001B181868904308431860704700ED00E0DB
:1018400000E400E010B5FEF7ABFC10BD10B5FEF7EC
:10185000C4FC10BD7047000001B582B002A8009022
:1018600005480323C1890022408900F03AFC002882
:1018700000D047200EBD00000400002070B51749BD
:101880000023CA681206120F18D18A6B154CD500B6
:10189000134A02D51268224009E08E6B01252D07FC
:1018A0002E438E6312688E6B2240AE438E63A2423B
:1018B00004D103218903884200D101230A48016829
:1018C00049084900194301600068C007C00F9842E9
:1018D00001D0012070BD002070BD0000001002404A
:1018E0000070004000180000002002407CB5294C28
:1018F0002189491C884203D12748FEF7BBFC42E0FE
:10190000A189264D491C884213D1FEF737FC0F21CF
:1019100000F05AF92A460023FEF700FCFF210F31A0
:10192000401805B21C48FEF7A5FC284600F0FAF85E
:1019300029E0E189491C884212D16421684600F0FF
:1019400011F9FEF71BFC7D21C90000F03DF92A4684
:101950000023FEF7E3FB12494018FFF77DFF12E07A
:10196000218A491C88420ED1FEF708FC642100F050
:101970002BF92A460023FEF7D1FBFF21C331401883
:1019800080B2FFF729FF6088002802D0608800F04D
:101990006AFB7CBD0400002058000020FFFFFF7F91
:1019A000A0860100F8B51D4616460F460446FFF70F
:1019B00097F8314626464036009000291ED043E075
:1019C000681C1BD0002D05D0FFF78AF80099401A3B
:1019D000A84213D920684168E02291434160206801
:1019E000026840218A43026023E021680A6882433A
:1019F0000A6021680A6802430A601FE02068816863
:101A000038468843DCD124E0681C1DD0002D06D068
:101A1000FFF766F801460098081AA84214D9206812
:101A20004268E0218A434260206801684022914375
:101A300001600120A16A40038142D6D00120707468
:101A4000002030740320F8BD206881683846884340
:101A5000DAD00020F8BD704710B5FFF747F802480C
:101A60004168491C416010BD1C00002070B5164C37
:101A700094B0A06B21040843A063144801680322BA
:101A8000D2029143C21489180160022000900A908A
:101A9000400401260C9003960001102100250D90B2
:101AA0000B9504916846FFF757F903200F901095A6
:101AB000119501210E9612950EA8FFF75DF8606B47
:101AC0003043606314B070BD0010024000700040ED
:101AD00010480168821511430160C1680E4A114027
:101AE000C16001680D4A11400160816849084900E0
:101AF000816001680122920491430160C168FD2266
:101B000012049143C160002101610549C00388604E
:101B100070470000001002400C40FF88F6FFF6FE00
:101B200000ED00E001B582B002A800900548022354
:101B300081890022408900F0D4FA002800D0472093
:101B40000EBD00000400002010B50446FEF7C8FFDB
:101B50002168401A6168401C814201D2012010BDF9
:101B6000002010BD10B504464160FEF7B9FF2060AB
:101B700010BD000070B5124D04462878002803D02F
:101B800000F0A4FD002028700020FEF785FD00284D
:101B900014D10020FEF780FD0028FAD00948006823
:101BA00000280BD02068643020606068643060607A
:101BB000A0686430A0602046FEF75CFB70BD0000AA
:101BC0000400002018000020F8B504148BB226464B
:101BD00082B25E430D141046371458433604801900
:101BE0000021794116466E43371436048019794135
:101BF00026466E438919F8BD02E008C8121F08C1C5
:101C0000002AFAD170477047002001E001C1121F7D
:101C1000002AFBD1704770B58AB00E46694608703D
:101C200015461C460722002101A8FFF70FFE1822C7
:101C3000002103A8FFF70AFE3F20694688818A2019
:101C4000C8810120069001A80790072005910890FF
:101C5000002103A800F08AFB002802DAFF200AB066
:101C600070BD684600790028F9D1684681794279CB
:101C70000802104330806846017AC2790802104396
:101C800028806846817A427A08021043208000202A
:101C9000E5E7F0B589B06C460E9F0F9E207061702D
:101CA000A2701D460722002101A8FFF7CFFD1822D0
:101CB000002103A8FFF7CAFD3F20A0818A20E08110
:101CC0000320069001A807900720089005940021A2
:101CD00003A800F04BFB002802DAFF2009B0F0BD9A
:101CE000684600790028F9D168468179427908026E
:101CF000104328806846017AC27908021043388070
:101D00006846817A427A0802104330800020E5E775
:101D1000F0B58FB01D46134602466846179F169EC3
:101D200002704170102219466C46801CFFF78AFD34
:101D3000684685741499C1741599017505A9013116
:101D40003046FEF75AFA684647761822002108A85E
:101D5000FFF77CFD3F2168460184862141841A20DB
:101D60000B9007A80C9001200D900A94002108A860
:101D700000F0FCFA002802DAFF200FB0F0BD684640
:101D8000007FFAE7FFB591B01D9E1B9DA9190E318A
:101D9000282902D9422015B0F0BD6C46207010A948
:101DA000088908810127022212A9601CFFF74AFD59
:101DB00010A988898881E01C022213A9FFF742FD3F
:101DC0006946149848711A988871CD7102A82A46FC
:101DD0001C99FFF737FD0835E8B22654401CC5B200
:101DE000601932461E99FFF72DFDA819C5B210A93A
:101DF000888F8887601902221FA9FFF723FD20A979
:101E0000AD1C0888EDB2088060190222FFF71AFDA8
:101E1000AD1CEDB2182200210BA8FFF717FD3F20E3
:101E2000694688858320C8850AA80F9000211097ED
:101E30000E950D940BA800F099FA002801DAFF2006
:101E4000A9E708A8007AA6E7FFB58FB00D46684657
:101E5000818F81876C461F46204602220FA9FFF71B
:101E6000F1FC684603268570012D39D01025E01C51
:101E70002A461199FFF7E6FCED1C67556D1C189872
:101E800060556D1C199860556D1CE8B21A99215463
:101E9000401CC0B21B992154401CC0B21C99215453
:101EA000401CC5B20322002107A8FFF7CFFC18226F
:101EB000002108A8FFF7CAFC3F2168460184FF21E2
:101EC0000531418407A80C9000210D960B950A94CA
:101ED00008A800F04BFA002804DAFF2013B0F0BD88
:101EE0000225C4E76846007F0028F7D16846817F55
:101EF000427F08021D99104308800020EEE7FFB5DD
:101F0000A7B020A8818B309F319E818315466C46F7
:101F10002046022227A9FFF795FC20A8018C018406
:101F2000A01C022228A9FFF78DFC68460571012D2F
:101F300011D01025601D2A462A99FFF783FC6D1DDC
:101F400067556D1C66556D1C7019401D802804D99D
:101F500042202BB0F0BD0225ECE7601932463299E1
:101F6000FFF770FCA819C0B233992154401CC0B2CD
:101F700034992154401CC0B235992154401CC0B240
:101F800036992154401CC0B237992154401CC5B227
:101F90000322002126A8FFF759FC1822002120A8BF
:101FA000FFF754FC3F2120A80180FF21063141802A
:101FB00026A824900320259023952294002120A870
:101FC00000F0D4F9002801DAFF20C2E720A8007E43
:101FD0000028BED120A8817E427E08023899104395
:101FE00008800020B5E7F0B58DB06D461E46174657
:101FF0002870012828D010242246681CFFF722FCF4
:10200000641C2F55641C2E550322002105A8641C56
:10201000FFF71CFC1822002106A8FFF717FC3F2140
:1020200068460183FF210331418305A80A900320FC
:102030000B9008950994002106A800F097F9002854
:1020400004DAFF200DB0F0BD0224D5E76846007D1C
:102050000028F7D16846817D427D0802129910431D
:1020600008800020EEE700B589B069468883182211
:10207000002101A8FFF7EAFB3F2069468880FF2086
:102080002830C88007A80390022004900120059101
:102090000690002101A800F069F9002802DAFF206B
:1020A00009B000BD68460078FAE700B587B018228D
:1020B000002101A8FFF7CAFB3F2168468180FF216C
:1020C0000231C180059001200690002101A800F096
:1020D0004DF9002802DAFF2007B000BD68460078FD
:1020E000FAE7FFB59E1DA7B01D461746802E02D900
:1020F00042202BB0F0BD20A8818B81836C46204606
:10210000022227A9FFF79EFB20A8018C0184A01CB6
:10211000022228A9FFF796FB684607714571A01DAA
:102120002A463099FFF78EFBF5B21822002120A82D
:10213000FFF78CFB3F2120A80180FF210731418060
:1021400026A824900120259023952294002120A8E0
:1021500000F00CF9002801DAFF20CAE720A8007E71
:10216000C7E700B589B06A46107051701822002187
:1021700002A8FFF76BFB3F206A4610810F205081B9
:102180000220059001A806900120079004920021EA
:1021900002A800F0EBF8002802DAFF2009B000BD29
:1021A00068460079FAE770B513468D1CA8B0024660
:1021B000802D02D9422028B070BD68460276417653
:1021C0000A4606AC012619461A30FFF73BFBEDB272
:1021D000182200216846FFF739FB3F21684601803D
:1021E0000C21418026A804900021059603950294B5
:1021F000684600F0BBF8002801DAFF20DBE720A8E2
:10220000007ED8E770B586B0064601A80C4600905F
:1022100005AB04AA02A903A800F01DF805062D0EBF
:1022200014D168460089000A3070684600890202AD
:102230002280684680880006000F00010243228049
:10224000684680880007000F02432280FFF76EFA7D
:10225000284606B070BDF0B589B015460E46074653
:102260001C46092200216846FFF7F0FA18220021D7
:1022700003A8FFF7EBFA0421684681810121C1819F
:1022800000200590069068460790092008900021DC
:1022900003A800F06BF8002802DAFF2009B0F0BDB7
:1022A000684600780028F9D168464078387068465A
:1022B0004088308068460079287068468179427984
:1022C0000802104320806846017AC27908020E99FC
:1022D000104308800020E1E730B58FB00D4604467A
:1022E000202200216846FFF7B1FA684604701F2CCF
:1022F00000D91F24224604462946401CFFF7A2FAB3
:102300001822002109A8FFF7A1FA08216846818454
:102310000921C18420200C9008A80D9001200E9066
:102320000B94002109A800F021F8002802DAFF2010
:102330000FB030BD08A80078FAE77CB58905890D93
:1023400080020143684601808270012101711446B8
:102350001D4603226946401DFFF774FA23460422F6
:10236000294601A800F0C0F87CBD0000F3B5044682
:10237000408821788005800D89028BB0084385B2A2
:102380000026642705A8049600F0C0F8FEF792FA2C
:102390000AE06946534800F0E0F8524800990838CE
:1023A00000F0C3F8FFF790F94E48083800F0A0F8A5
:1023B0000228EEDBFEF794FA227B61882088A3686E
:1023C000FFF7BBFF0C98002802D000200DB0F0BD35
:1023D000394607A8FFF7C6FB07A8FFF7B5FB00289B
:1023E00070D1FFF7C7F90028F6D1FEF763FA04A908
:1023F0003C4800F0B2F804980346017A08330429F7
:1024000046D18030027A5878D91CD21E0E2818D0B6
:102410000F2804D0102855D03E2839D11EE0C878A6
:102420008B7800021843A8424CD160680F2803D073
:102430000878002846D12BE060690BE062612069D2
:1024400018E08B784E7818023043A8423AD1C91C64
:102450006069D21E9042F1DC0246EFE708786368BB
:10246000984215D16069521E904200DC02466261BA
:10247000491C2069FFF7E6F91A480499083800F06A
:1024800048F805A9174800F00FF9FEF729FA9CE76C
:102490001448083800F055F8002808D0114800F01A
:1024A00050F8002803D00F480499083801E005A827
:1024B000049900F03AF80496FFF706F9FEF710FACF
:1024C0008AE7FFE70499002903D00648083800F09E
:1024D00020F805A9034800F0E7F8FEF701FA00200C
:1024E000C04373E74C00002010B5FFF75CF910BD46
:1024F00003460020EFF3108172B61A6801E01268FB
:10250000401C9A42FBD181F3108870470060406004
:102510007047EFF3108272B603680B604860016089
:10252000086882F3108841607047EFF3108272B63A
:10253000086043684B604160486882F3108801601E
:102540007047EFF3108172B60268824201D1012018
:1025500000E0002081F31088704730B50D46EFF39E
:10256000108472B601682960006800F008F82968D4
:1025700000200860296884F31088486030BDEFF3BC
:10258000108172B60CC808381A6005C881F310882B
:102590004260704730B50D46EFF3108472B6416863
:1025A00029604068FFF7EBFF296800200860296870
:1025B00084F31088486030BD36A103C98EB033A4BF
:1025C00008910790FEF79AFA00210846FEF772F884
:1025D000FFF74CFAFEF742F8FFF75CF8FEF7AEF8AB
:1025E0000CA904A8FFF70EFEFEF7A8F86846007CC9
:1025F00001252A4E302800D93570062207A909A8DE
:10260000FFF720F909AA06210020FFF7CCFDFFF70C
:102610004CFD3078012813D00BAB06AA05A9012088
:10262000FFF7F9FA2046FDF7E1FDC3B268460094D2
:10263000018B0022808AFFF754FD00280BD0FEE7B3
:102640000BA906A80191009005AB072200210120EB
:10265000FFF71FFBE6E712480021102200920290CC
:102660000723039501910A460120FFF751FBFDF76F
:1026700023FEFDF7B9FE04210120FFF772FDFFF7ED
:1026800055F80848FFF776FAF9E70000426C7565DF
:102690004E524700FF3301E180030000000000209C
:1026A00040E201005800002038B50C46054607E01E
:1026B00069462046FFF76EFF28460099FFF729FF7D
:1026C0002046FFF73EFF0028F2D038BD00B50DA12F
:1026D00003C989B00891079000210846FFF7FCFD67
:1026E000002007AA0821069005900292019103900C
:1026F00004900346009002460146FFF743FB09B0F1
:1027000000BD000009426C75654E5247070020006D
:102710000020000000000000000001020304060782
:102720000809030406080C10182030004C27000884
:102730000000002058000000F81B0008A427000833
:102740005800002020070000081C000800000000BE
:102750000100000000000000000000000000000078
:102760000000000000000000000000000000000069
:102770000000005000080050E803000000000000C6
:102780000000000080841E00000000000000000027
:102790000000000000000000000000000000000039
:0427A0000000000035
:04000005080000C12E
:00000001FF
