:020000040800F2
:1000000020130020D5000008DD000008DF000008F4
:1000100000000000000000000000000000000000E0
:10002000000000000000000000000000E1000008E7
:100030000000000000000000E3000008E5000008E8
:10004000E7000008E70000085D3F0008E70000083F
:10005000E7000008F50C0008050D0008150D000864
:10006000E7000008E7000008E7000008E7000008D4
:10007000E7000008E7000008E7000008E7000008C4
:10008000E7000008E7000008E700000800000000A3
:10009000E7000008E7000008E7000008E7000008A4
:1000A000E7000008E7000008E7000008E700000894
:1000B000E7000008553F000800000000E7000008C6
:1000C0000348854600F0D2FB004800478D800008B9
:1000D000201300200448804704480047FEE7FEE75D
:1000E000FEE7FEE7FEE7FEE725650008C100000821
:1000F00030B50B46014600202022012409E00D46C0
:10010000D5409D4205D31D469540491B2546954047
:1001100040191546521E002DF1DC30BD70B500248B
:100120002546002801DA01244042002901DA012590
:100130004942FFF7DDFFAC4200D04042002C00D026
:10014000494270BDF0B51FB40646002082B0054696
:100150004024019100901BE0019922460F46304651
:1001600000F0AEFA049A059B801A994110D310460C
:100170001946224600F094FA361A8F41019722461A
:1001800001200021009F00F08BFA38184D410090AB
:100190002046641E0028DFDC019B00982946324679
:1001A00007B0F0BDF0B51FB486B0002000900190FC
:1001B00002900698069980B204900798090C0204F0
:1001C0000014114307900027089D099806913E46A8
:1001D0003C4603900398A9B20204000C03900498D3
:1001E0002D0C154348430021224600F059FAC71947
:1001F000714110340E46402CECDB3846029A00F078
:100200004FFA009A019B8018009059410298019181
:10021000103002904028CCDB00980BB0F0BD0346B4
:100220000B439B0703D009E008C9121F08C0042A2A
:10023000FAD203E00B780370401C491C521EF9D21D
:100240007047D2B201E00270401C491EFBD27047D9
:100250000022F6E710B513460A4604461946FFF792
:10026000F0FF204610BD421C0178401C0029FBD144
:10027000801A704730B505460020034600E05B1C3D
:10028000934205D2EC5CC85C201A01D1002CF6D157
:1002900030BD0321001D401E037812021A43491E7F
:1002A000F9D5104670470000F0B50746084658409B
:1002B00087B0C00F049048000E4659004008490816
:1002C000BC1A884105D2384631461E4617460B46B1
:1002D00002465800400810434CD0300D03904005B2
:1002E0005900400D490D0590401A0290402872DADD
:1002F00018030121000B090508430190049800929E
:10030000002805D0019952420020884100920190B6
:10031000029840210A1A0199009800F0C1F9054697
:100320000C466B4607CB00F0DCF9C0197141039A0B
:100330000E0D0023D71756401A467A40164344D074
:10034000049A002A2DD0029A012A039A15DC12057C
:10035000C01A914101263605001C7141D20F059E3D
:10036000D2070093019202962A46234600F0D9F95B
:1003700007B0F0BD38463146FAE71605224A0F4667
:10038000B218C01AB74101210905001C4F410018DD
:100390007F41114618187941E20F10436D196441ED
:1003A00013E0E2076D0815436408C2071443039A7B
:1003B00001261205C01A91413605001C7141CE0775
:1003C000400830434908C01851412A46234600F0EE
:1003D0009BF9CDE7FFE7049801224000C117121AEC
:1003E00000238B4104983146C417381AA141EEE727
:1003F00030B40124E407634030BC55E730B4012435
:10040000E407614030BC4FE70000E0FFF0B51FB4E7
:1004100088B00B990998002448400999C00F4900F9
:1004200049080991C0070B990090490049080B91B0
:1004300009990898A64608431CD00B990A980843C6
:1004400018D0099801244000420D4800410D099838
:1004500024050003000B204309900B980003000BB8
:1004600020430B9050181C4940180022019014465C
:10047000104605E0002001460DB0F0BD032801DA6A
:10048000034600E003239C46C11A0AAE0AE05F005F
:1004900008ADED5B4F00F75B7D430027AA187C4158
:1004A000491C5B1E6145F2DD410004AB5A52210438
:1004B000120C0A43240C401C0828DFDB0198029030
:1004C0000099704601910090059B049A079906983F
:1004D00000F027F9D0E700000DFCFFFFF0B50C4657
:1004E0005C4085B0E40FE40703944C0000266408E8
:1004F00059009446490802460296224321D062469A
:100500000A431ED06200570D4A000E032303550D07
:10051000012402462C492405781B1B0B360B40187E
:1005200023432643614600901C46501AB44103D32E
:100530000098401C009002E0921800985B4100284F
:1005400003DA0020014605B0F0BD002001210905B5
:100550000746864611E064461D46141BB54106D386
:100560006546521BB341744607430C43A646CD076C
:1005700040084908284392185B4105460D43EAD1DB
:100580001046184313D06046194650407140084346
:1005900006D06046101AB34106D20122002306E0BD
:1005A00000220123DB0702E00122D243531000980E
:1005B00074460105381C6141029C039D0019694184
:1005C00000F0A2F8BFE70000FD03000070B54B008B
:1005D0005B0803430BD04B005C0D0026334665429D
:1005E000B341D417AD1AA34102DB0020014670BD10
:1005F00012053018514170BD0EB5C217C10F5040E1
:10060000CA0740180021054B0293019200910A4647
:100610000B4600F086F803B000BD00003304000074
:100620000EB505490291002100910A460B46019141
:1006300000F077F803B000BD330400004A0009035E
:100640000123090B1B051943094B10B5520D9A42A2
:1006500001DA002010BD064B34339A4203DC9A1AAB
:1006600000F02EF810BD03495118884010BD00005D
:10067000FF030000CDFBFFFF10B5002904DB0124C0
:10068000E40740428C412146002B04DB1C46012339
:10069000DB075242A341994200D1904210BD0000B5
:1006A00010B5202A04DB0146203A9140002010BDFD
:1006B000914020239C1A0346E3401943904010BD0B
:1006C00010B5202A04DB0846203AD040002110BD96
:1006D0000B46D340D0402024A21A9140084319462B
:1006E00010BD10B5202A06DBCB170846203A104172
:1006F000C1170B4306E00B461341D0402024A21A39
:1007000091400843194610BD10B5002B08DA0024AB
:10071000401C614192185B411A4301D140084000DE
:1007200010BDF0B51FB482B005460C0003D00846DA
:1007300006F020FB02E006F01DFB20300246009090
:1007400021462846FFF7ACFF049B059A04460F4656
:1007500018431143084314D0184610431BD0009887
:1007600040210A1A18460599FFF7AAFF05460E46CA
:10077000009A05990498FFF793FF084305D00120DC
:1007800004E02046394607B0F0BD0020C1170543FC
:100790000E432C43374300990E986305401A7905A0
:1007A000E40A00220C43FD0A0A3002D5002001466B
:1007B000E9E70105101969410C9C0D9D001969417B
:1007C000FFF7A2FFDFE70000F8B505464800400844
:1007D0000C46284304D06000184A400D904201DDC9
:1007E0002846F8BD15493539884210DC88420BDBB4
:1007F000290D200308432903014305D0E00F1049C8
:10080000C00741180020F8BD00200146F8BD161AA7
:100810004020821B28462146FFF742FF07460091F1
:10082000284621463246FFF74BFF3A46009BFFF72A
:100830006BFF3246FFF734FFF8BD000033040000C1
:100840000000F03F10B5002904DB0124E40740421A
:100850008C412146002B04DB1C460123DB0752425E
:10086000A3418B4200D1824210BD0000064C0125FD
:10087000064E05E0E36807CC2B430C3C9847103448
:10088000B442F7D3FFF720FC7CA300089CA3000828
:1008900070B58C180578401C6B075B0F01D103788D
:1008A000401C2A1106D10278401C03E006780E7025
:1008B000401C491C5B1EF9D12B0705D40023521E96
:1008C0000DD40B70491CFAE70378401CCB1A921C1C
:1008D00003E01D780D70491C5B1C521EF9D5A14226
:1008E000D8D3002070BDF0B589B00C460746102261
:1008F0000021684607F018FC224624326946084663
:10090000049206F082FA6846007887250006694658
:1009100000280FDA00228E18885C76784300F609EA
:1009200033438B54521C0F2AF5DBC87B0A46400028
:1009300068400DE000228E18885C76784300F60946
:1009400033438B54521C0F2AF5DBC87B0A46400008
:10095000D0732068102812D00878000619D500221C
:100960008E18885C76784300F60933438B54521C0A
:100970000F2AF5DBC87B0A464000684017E00020DC
:100980002218137D0D5C401C6B4013751028F7DB9B
:1009900024E000200B180A5C5B785200DB091A4344
:1009A0000A54401C0F28F5DBC87B0A464000D07370
:1009B0002246256880231432AB54002300E0835480
:1009C0002068401C20601028F9D300202218137DD5
:1009D0000D5C401C6B4013751028F7DB00202118BC
:1009E0000A790B7D401C5A400A711028F7DB10224F
:1009F000211D05A807F080FB394605A8049A06F0DA
:100A000004FA10220021684607F08EFB09B0F0BD01
:100A100010B5044610220021001D07F085FB0020C0
:100A2000014620602046F022243007F07DFB10BDF7
:100A30000B46024610B524321021184606F010FA73
:100A400010BDF0B504460F46214689B00068143148
:100A5000009110311546079100283CD010210E1A44
:100A6000AE4200D316460099B2B24018394607F09C
:100A700043FB206880192060102834D3B54232D05F
:100A8000002021180A790B7D401C5A400A71102859
:100A9000F7DB211D201D079A06F0B7F9BF19AD1B22
:100AA00019E0002021180A793B5C401C5A400A7169
:100AB0001028F7DB1022211D02A807F01DFB02A958
:100AC0000846079A06F0A1F9102202A9201D07F096
:100AD00013FB103D1037102DE3D8AAB23946009809
:100AE00007F00AFB256009B0F0BD0000F7B5234907
:100AF0000F22497A214B511ACDB2197A5B7A0F260F
:100B0000F31A0A46DEB2871E491C0124C9B2761EBA
:100B10003B0006F05EF909060C060C120C06062BCB
:100B20003000164BAA4224D2154CA05403E0134BBC
:100B3000B24215DB1DE019720DE0104EAD1EAA4247
:100B400017DA0F4B985401985854491CC8B20299AF
:100B50001954401C3072002408480121C17108E07A
:100B6000074CA05401986054491CE4E7034BAA4287
:100B7000F6D32046FEBD0220FEBD0000F40000209A
:100B8000090B002010B508F027F808F0A3F810BDF5
:100B900070B5144E0025144C0DE000F007F92168E3
:100BA000012870540CD00D280FD00A280DD07F29B1
:100BB00013D0491C216001F065F90128EDD070BD0A
:100BC0000620256006F050FE70BD0029F3D0755454
:100BD000044807F0BFFB2560EDE70420256006F020
:100BE00043FEE8E7770400202C000020FFB500203A
:100BF00085B00090054606460190002477000798CE
:100C00000121C05BA140084230D028190C2203907A
:100C10005043089A1258002A28D0059A002A01D178
:100C2000490723D00899411808200291085602115B
:100C300000070117069840B203F0A4FA002815D067
:100C400002980C21407A48430E9940188068002889
:100C500004D00198401CC0B2019007E0009A0F999F
:100C6000039888540098401CC0B20090641CE4B201
:100C7000102CC4D31035761CEDB2F6B2102DBCD3B7
:100C8000109901980870009809B0F0BD10B586B0B1
:100C90000320019000200290032105206A464903A9
:100CA000000700F0CFFA0F48C16A49084900C16245
:100CB0000122416B920511434163416B1140059143
:100CC00009494B685B085B004B604B680224A343F7
:100CD0004B604B680424A3434B60416B91434163D9
:100CE00006B010BD001002400058014010B500F0E1
:100CF000ADFD10BD10B5012000F07CFA022000F01F
:100D000079FA10BD10B5042000F074FA082000F044
:100D100071FA10BD10B5102000F06CFA202000F020
:100D200069FA402000F066FA802000F063FAFF20A4
:100D3000013000F05FFA0120400200F05BFA012070
:100D4000800200F057FA0120C00200F053FA01209F
:100D5000000300F04FFA0120400300F04BFA01209D
:100D6000800300F047FA0120C00300F043FA10BDF1
:100D7000FEE701460020062900D10120704700004F
:100D800010B5094A0021CB00D458844207D89B18DB
:100D90009B68834203D9C8008018007910BD491CA4
:100DA000C9B21529EFD3FEE7B88E0008EFF3108122
:100DB00072B6054BD81F5A68F938105C521CD2B273
:100DC00081F310885A607047E007002008B5064993
:100DD000096848430549FFF78BF900E0401E009081
:100DE0000028FBD108BD00002000002040420F0079
:100DF000084840680168C907C90F07D08168C9075A
:100E0000C90F03D080688007C00F01D00020704751
:100E100001207047C800002070B52A4CA068A06867
:100E20001025C006002804DB606801F03BF80028AC
:100E300002D0A068284343E0A068FF210131884325
:100E4000A060A0682843A060FFF7D2FF00280BD164
:100E50006068012102698907920092080A430261D1
:100E6000C16818229143C160174A012110684906E0
:100E700088430843106060688168C900C90F06D1C3
:100E80008168124A11400122120711438160C16832
:100E90000F4A1140891CC1600169C907C90F03D0FD
:100EA0000169490849000161426907218A430A43EF
:100EB0004261A06802218843A060A0680121084324
:100EC000A06070BDC800002008270140E8FFFF7F38
:100ED0001902FEFFF8B51F4C6068C1682025C907DC
:100EE000002903D0A0682843A060F8BD0168490725
:100EF000C90FFBD0606800F0D5FF0028FAD1A068C8
:100F0000012149020843A0606068C1680426090500
:100F1000890F00290BD1016801270907C90F06D0E5
:100F200000F0C0FF002805D0A0682843A0606068DA
:100F30000660F8BD606841680822914341604168DD
:100F4000B1434160A06851018843A060A068384364
:100F5000ECE70000C8000020F8B51A4E0446002552
:100F60002F46706800F09EFF002804D0B068202152
:100F70000843B060F8BD7068816A6203520B114388
:100F800081621148092104401048C9062040884266
:100F900002D10125ED050A270D48044011208006E5
:100FA000844202D10120800505430A4908680322D2
:100FB0009205904328430860002FDBD03846FFF7A6
:100FC00005FFF8BDC80000200000C07C000004C878
:100FD000000002C40827014070B5194C606800F099
:100FE00061FF00280DD1FFF703FF164D002815D132
:100FF00060688168EA43114204D1A0681021084367
:10100000A06070BD81682940491C81600120FFF704
:10101000DDFE60680168C907C90FFBD0A0680A49F6
:101020000840A060A068FF2101310843A06060680B
:101030001C21016081682940091D816070BD00008C
:10104000C8000020E8FFFF7FFEF1FFFFF8B5264C47
:10105000074621780020012945D14D02284600F09D
:1010600039FF224841680907C90FFBD0606800F0CA
:101070001DFF60688168C90FFCD040210091491EA6
:101080000091FCD181681A4E3140491C8160016891
:10109000C907C90FFBD000F005FF002804D0A068E5
:1010A00020210843A06008E06068816A81621149DC
:1010B000086803229205904308603846FFF74CFF0A
:1010C000FFF78AFFFFF706FF6168086C8A6880B245
:1010D0003240921C8A6002220A6001220A6006499C
:1010E0004A6BAA434A63F8BDC80000200070004064
:1010F000E8FFFF7F082701400010024010B50448B8
:10110000016889088900016000F016FF30BF10BD3A
:101110000070004030B585B0EFF3108472B6142132
:101120006846FFF795F803200190002005252D075C
:1011300002906A468021284600F084F86A464021E1
:10114000284600F07FF86A460821134800F07AF834
:1011500001216A46C903284600F074F80F48406828
:1011600080470F4801680422114301600D490B6854
:101170002025AB430B6084F31088016801238908A4
:10118000890019430160084801691143016130BFBA
:1011900000F0D2FE05B030BD00040050248E0008DF
:1011A000007000400048004000ED00E010B5EFF393
:1011B000108472B600F03AFF0C4801684907C90F65
:1011C000FBD000F04BFF00F053FF0028FBD00320C2
:1011D00000F056FF00F022FF0C28FBD100F026FEA5
:1011E00003480068804784F3108810BD0010024057
:1011F000248E000810B504494A69024202D04861B1
:1012000000F0D8F810BD00000004014001460020A5
:101210000A0A00D00820084A114201D004221043D3
:10122000064A114201D002221043054A114201D060
:101230000121084370470000F0F00000CCCC000012
:10124000AAAA0000F8B505460B200C460007174671
:1012500029180BD001208002091A09D0091A0DD0D3
:10126000814201D1082004E0802002E0012000E05A
:10127000022000F055FE2E4600250AE00420F8E783
:10128000E00704D03A462946304600F005F86408E5
:101290006D1C002CF4D1F8BDF8B501238B405468C7
:1012A0009BB2022C0CD1CC10A40027183C6A4D072D
:1012B000EE0E0F25B540AC431569B54025433D62A0
:1012C00001248C40A4B26443650056686519012E60
:1012D00001D0022E08D1D76886686743AE433E43EB
:1012E000866046689E434660576806686743AE431B
:1012F0003E4306609768C6687C43AE432643C6609B
:101300005268D20044D5234A0124556B25435563C6
:10131000526B2240009205221207904201D1002216
:1013200019E01D4A904201D1012214E01B4A90426B
:1013300001D102220FE01A4A904201D103220AE0B1
:10134000184A904201D1042205E0174A904201D187
:10135000052200E006228807000B891008430106D9
:101360008C0D124961188C68050C0F20A84084432D
:10137000AA4014438C600E4801681943016041681B
:1013800099434160816819438160C1689943C16094
:10139000F8BD00000010024000040050000800509A
:1013A000000C005000100050001C005000000140D4
:1013B0000004014010B5FFF729FF810002484058A2
:1013C000002800D0804710BDF804002070B51E46EC
:1013D00015460C460846FFF719FF002E38D01D4968
:1013E00080000E50FF2101318C4208DA082C1DD0FC
:1013F00005DC012C18D0022C16D0042C16D00720A6
:10140000A907FF22090E002812DA0346083B9C08B0
:10141000114BA400E318DD698407E40EA240954354
:10142000A1400D43DD610FE00520E9E70620E7E775
:1014300084080A4BA400E41823688507ED0EAA402F
:101440009343A9400B43236001218140044801607C
:1014500070BD0000F804002000ED00E000E400E0B2
:1014600000E100E0002A01D081617047816270478D
:10147000002A01D08161704781627047002A01D043
:10148000816170478162704770B500240E48FFF794
:10149000DDFD0E4E0E4D010013D00E483246008B7E
:1014A0005043FEF725FEB04201D9FE2409E0A842D0
:1014B00007D3401BFE2148434B210901FEF718FECC
:1014C000C4B2204670BD0000000002C4B80B00008A
:1014D000080700006000F81F03494A690869496A63
:1014E00050404840704700004000F81F09490B6910
:1014F0004A69496A59180B0EC3710B0C83710B0AA8
:1015000043710171110EC170110C8170110A41708B
:10151000027070474000F81F10B586B0142168466D
:10152000FEF796FE032001900020029005206A46F7
:1015300010490007FFF786FE0F4C6A4621460F4808
:10154000FFF780FE6A4621460D48FFF77BFE6A469C
:1015500021460C48FFF776FE012000F0D9FC02205E
:1015600000F0D6FC042000F0D3FC802000F0D0FC7A
:1015700006B010BDFF9F0000FFFF000000040050F8
:1015800000080050001C005070B5114C6078002815
:101590001DD120780126002811D175022670284619
:1015A00000F098FCFFF738FC606800F07FFC606892
:1015B0008168C90FFCD00748416BA94341630648C5
:1015C0000068804700F0F8FB00F0D2F9667070BD4B
:1015D000C800002000100240248E000808B50F4803
:1015E0000121826B09070A438263806B08400090E7
:1015F0000B480168102291430160016842151143B4
:10160000016008490A6808231A430A600168021544
:1016100011430160FFF780FF08BD00000010024089
:10162000007000400020024070B50120000700F06B
:1016300045FC00F0C1FC14480168C905C90FFBD086
:101640001248016903221204012311401B0499422C
:1016500019D0016905699143DC00254305610569DD
:10166000A5430561016189050DD501698905FCD591
:10167000064940390C6803252D05AC430C6001690F
:1016800091431943016170BD007000404010024059
:1016900010B500F02BFC002808D1012000F02EFC32
:1016A00000F024FC012801D0FFF762FB194CE06830
:1016B000F0218843E06000F0DBFC002801D1FFF757
:1016C00057FB032000F0DCFC00F0A8FC0C28FBD149
:1016D00000F00CFC002808D0012000F00FFC00F006
:1016E00005FC012801D0FFF743FBE0680721090250
:1016F0008843E060E068C9008843E06002F00CFCC9
:10170000E168054A0906090F515CC84003490860B1
:1017100010BD000000100240688F0008200000206B
:10172000F8B50027164901252D07896B3E46284646
:10173000884303D0284600F0C1FB0127114C2068E4
:10174000C005C00F06D100F037FC01262068C00597
:10175000C00FFBD00A484030026981150A4302617C
:1017600002699205FCD5002E02D0206888432060D3
:10177000002F03D00248816BA9438163F8BD0000AC
:10178000001002400070004010B500F047FC1B4CF8
:1017900004280CD00C2804D1E06801210904084277
:1017A00005D000F043FC20684007C00FFBD0606804
:1017B0001F2109028843012109030843606000F0EA
:1017C0002DFC0C2817D020680121090688432060D1
:1017D00000F04EFC0028FBD1E068FD21090488439D
:1017E0001121C9040843E06000F038FC00F040FC1F
:1017F0000028FBD010BDFFF7BBFA10BD001002405F
:1018000001090A2200075143000F0818C0B27047AF
:1018100010B50A21FEF76CFC00010843C0B210BDF0
:101820000948CA214162532141628168821591436E
:1018300081608168821491438160C168C907C90FC2
:10184000FBD0FF21416270470028004070B5410E77
:10185000C0017D220023FEF775FC054600F080F8EC
:10186000044600E000BF00F07BF8001BA842F9D35B
:1018700070BD0000F8B505462C480C46816A066824
:101880004768826A8A42F9D188B2A060B002800EAD
:10189000FFF7B6FF20717004400EFFF7B1FF6071D3
:1018A0007006400EFFF7ACFFA071012080050640D6
:1018B0003804400F26602870F804C00EFFF7A0FF20
:1018C0006870B806800EFFF79BFFA8703802000E04
:1018D000FFF796FFFF216E31C21C41439208E8706A
:1018E00051186A780023561E03E0114FFF5C7918E7
:1018F0005B1C9E42F9D8800702D1032A00D3491C01
:10190000A878491E401821791822504308183C2114
:1019100048436179074A40183C214843A17940185F
:10192000A1688002511A4018F8BD0000002800404C
:101930009C930008FF0300000320704701480068E3
:1019400070470000380500201FB5694603A8FFF75F
:1019500091FF0249096804B0401A10BD3805002003
:101960001FB5694603A8FFF785FF04B010BD00004E
:1019700010B5064C2078002807D100F045F8FFF795
:101980004FFF00F0AFF80120207010BD30000020A4
:1019900010B5012001F014F9084CE068C005C00F33
:1019A00007D005F0AFF8E06880210840FF388238A2
:1019B000E060012002494004486110BD0028004059
:1019C0000004014070B50446FFF7BEFF211A0D4D1B
:1019D0000220285EC01C814203D9012001F0F0F8EA
:1019E00002E0012001F0E0F801F0F6F8002805D14E
:1019F000012001F0E5F80220285E241A204600F0BC
:101A00007DF870BD30000020F8B5FFF789FEFFF7C4
:101A10000BFE2C48016901229204114301612A49FD
:101A20000868FF2702263A049043086027490420EB
:101A30000860274CCA20606253206062204600F094
:101A400029FBA06840218843A060A06803214905C4
:101A50008843A060A068F1048843A0601D49206904
:101A6000C00BC0030843206120697F21090488431B
:101A70001F210904084320618025ED43E560E06CE7
:101A8000B043E064E06C40084000E064204600F0B1
:101A900001FB11496068114A1040084360602068EA
:101AA0000F4908402060E560A0688006C00F02D1A1
:101AB000204600F015FBA06820210843A060676263
:101AC000F8BD00004010024000E400E000E100E04A
:101AD00000280040FF03000001C10000C00000FF1B
:101AE000808080FF10B5044C2046211D1030FFF788
:101AF000C1FE206010BD000038050020F0B504468E
:101B0000614885B0011D0EC901AD0EC50069009088
:101B100000F0CAF85D480399A20A401AA105890D90
:101B2000081881B2684686785948434202E0121884
:101B3000761CB6B29A42FAD26846E123007A1B01BB
:101B400002E0D21A401C80B29A42FAD26B465D7A09
:101B500002E06D1CADB23C3A3C2AFAD29B7A9A184C
:101B600097B20122920203E0891A7F1C89B2BFB2A8
:101B70009142F9D203E03C3F6D1CBFB2ADB23C2FA5
:101B8000F9D203E03C3D401CADB280B23C2DF9D20D
:101B900003E01838761C80B2B6B21828F9D26C4629
:101BA00063783C4AE4789A5CA40706D1022B04D1FE
:101BB000521CD2B201E0B31A9EB29642FBD8364C08
:101BC000CA22626253226262A268A3159A43A2608B
:101BD000E26880231A40FF3A823AE260E268D20764
:101BE000D20FFBD0294A511A626CD20BD2030A439E
:101BF0006264616C0F221206914305225206114362
:101C00006164C0B2FFF704FE0090E8B2FFF700FE87
:101C10000546F8B2FFF7FCFD024600980199000462
:101C2000084329020843E16910431C4A114001435B
:101C3000E161E069D1058843E061F0B2FFF7E8FDBA
:101C4000E1693F221206914300060143E161E06928
:101C500013490840E061A068012189048843A0601D
:101C6000A06889120843A060A06809010843A06029
:101C70000C48490102680A43026082680A43826094
:101C8000FF20606205B0F0BD38050020FF030000B2
:101C900080AEFEFF9B93000800280040808080FFFC
:101CA0007F7F7F7F0004014010B50548C168802216
:101CB0001140FF398239C160FFF7B2FD10BD00004D
:101CC0000028004010B57D2105F06BF84906C009D9
:101CD000084310BD10B5410EC0017D220023FEF760
:101CE00031FA10BDF0B5244D89B06878002840D194
:101CF000224801680120042211423AD0687001A9EB
:101D000008A8FFF7B7FD1E4C0090606C4604E06920
:101D1000760C3F21090408408002800EFFF770FD19
:101D20000690E0697F21090208404004400EFFF759
:101D300067FD0746E0694006400EFFF761FD01467A
:101D4000E0693F22120610408000800E18225043A6
:101D5000069A80183C225043C2193C204243501836
:101D600008498002891B41180098401A69880818A0
:101D7000688009B0F0BD00003000002000E200E003
:101D800000280040FF0300000A490A685206D20FEB
:101D900003D10A6840231A430A6008738868C007A1
:101DA000C00FFBD0C868C0B28A681206D20FFBD140
:101DB000704700000030014000B518480121426B17
:101DC0008BB009030A434263406B164A08400A90ED
:101DD0000020FF2105310191012100904902059168
:101DE0000290039004900E4B0146126803E05208E3
:101DF000491C072901D29A42F9D8C90007900691D7
:101E000008906946084800F0A5F9012801D0FEF7BE
:101E1000AFFF00F00BF80BB000BD00000010024057
:101E200080969800200000200030014030B585B039
:101E300002200190029003200390002004906A4643
:101E400008210F48FFF7FEF9052424076A464021C0
:101E50002046FFF7F7F96A4680212046FFF7F2F99E
:101E600001210191CD0302916A4629462046FFF7E0
:101E7000E9F9012229462046FFF700FB05B030BDF5
:101E800000040050EFF3108172B6054805C8824285
:101E900001D0012000E0002081F31088704700008D
:101EA000E007002080684007C00F70478168172254
:101EB0009143D207114381607047000008B504497F
:101EC0008A6B02438A63896B0140009108BD000060
:101ED0000010024008B504494A6B02434A63496B4B
:101EE0000140009108BD0000001002400248006857
:101EF000C007C00F704700000020024003490A6875
:101F00005208520002430A6070470000002002405D
:101F10000249CA6A8243CA62704700000010024048
:101F200008B50449CA6A0243CA62C96A01400091FD
:101F300008BD0000001002400248016904229143DC
:101F40000161704700ED00E070B5044600680E4680
:101F50000025C007C00F2AD1F168706822680843C5
:101F60003169144B1A40114308432060B16860681E
:101F7000032212039043084360607169A068121144
:101F800090430843A060900000F01EF800280ED097
:101F90003268002A0BD0010E0602500800233018C8
:101FA00001255941FEF7CEF80003000BE0602846FA
:101FB00070BD0000F3E9FFEF02480168821511438C
:101FC000016070470070004010B512490024C968D4
:101FD000014001208002091A12D0091A14D081424E
:101FE00007D100F033F8002801D00124E403204693
:101FF00010BD01F06FFF01F053FF01F05FFF01E042
:1020000001F068FF0446F2E700F018F80028EED06F
:10201000014CECE7401002400024F4000248C06884
:102020000C2108407047000000100240024801687F
:10203000012211430160704700100240024800680D
:102040004007C00F704700000010024002480069BE
:102050008005C00F7047000040100240034801682F
:102060000122120611430160704700000010024077
:10207000024800688001C00F704700000010024055
:102080000349CA68920892000243CA607047000080
:102090000010024018B57D21C9000091C1680122DD
:1020A0004906C90F15D1491EC160C1680B4B4906CD
:1020B000C90F0CE01969C903C90F02D00099491E64
:1020C0000091C168009C4906C90F002C03D000296B
:1020D000F0D0104618BD0022FBE7000000E000E051
:1020E00038B57D24E4000094C268012180231A40A1
:1020F000A13AC260C268164B9206D20F0CE01A6970
:10210000D203D20F02D0009A521E0092C268009DE4
:102110009206D20F002D18D0002AF0D1002912D03B
:102120000094C2689206D20F0BE01A69D203D20F54
:1021300001D0621E0092C268009C9206D20F002C51
:1021400003D0002AF1D0084638BD0021FBE700008B
:1021500000E000E010B5036800225B06DB0F25D12C
:102160000CC94C681A430B6823431A438B681A4303
:10217000CB681A430B691A434B691A438B691A439C
:1021800003680E4C23401A430260426804239A43BA
:10219000CB681B0C1A43426001238A695B03083930
:1021A0009A4202D1898C89B201610122C16901235D
:1021B000DB029943C161104610BD00004000FFFFE3
:1021C000F8B5174605460A461948069C089E079921
:1021D000447183711C0AC4711C0C04721B0E43727F
:1021E00081720B0AC3720B0C0373090E4173D4B2D4
:1021F000C4731048FEF70CFC39460E48FEF718FC75
:1022000010220B490B48FEF71CFC224629460948C0
:10221000FEF717FC0749C81FFD38FEF764FB064CA4
:10222000601CFEF736F82178000208433060F8BDE4
:102230005C010020440D0020400C0020FEB50F463C
:10224000050016467ED028680028FBD06868002864
:10225000F8D0A8680028F5D0104602F0F8FB002856
:1022600071D06F4C0021E765A565224626741732B0
:10227000117061742163A175E174216561650821A4
:102280006A4611703046694602F0D3FB0198002877
:1022900000D0012020750521684601706946207C28
:1022A00002F0C7FB5F4D019828700321684601705A
:1022B0006946207C02F0BDFB0198687009216846E0
:1022C00001706946207C02F0B4FB019868600A2125
:1022D000684601706946207C02F0ABFB0198A8605B
:1022E0000B21684601706946207C02F0A2FB019830
:1022F000E8600C21684601706946207C02F099FB79
:10230000019828610D21684601706946207C02F021
:1023100090FB019868611021684601706946207C35
:1023200002F087FB019868761121684601706946C2
:10233000207C02F07EFB0198E86112216846017062
:10234000694601E067E068E0207C02F072FB2E46FF
:102350002036019830701721684601706946207C4C
:1023600002F067FB019830711821684601706946D8
:10237000207C02F05EFB01987071192168460170A3
:102380006946207C02F055FB0198B07101262E763B
:102390000021207C02F054FB02F0CAFB28462249AF
:1023A000283004F099FB7D212846C900283004F02C
:1023B000FBFB28461D49583004F08EFB28461C497B
:1023C0006C3004F089FB28461A49803004F084FB05
:1023D00028461949943004F07FFB294617483C31C0
:1023E0000860174888601748086117484860174810
:1023F000174DC8600B48A9683C308847E064E8691D
:10240000804706F039F9A674304604F02FF8686B5F
:1024100080470020FEBD0320FEBD0B20FEBD000056
:10242000F4000020500B0020692E0008B937000886
:10243000BD36000815370008F52D00088135000865
:102440007D300008F1340008813600083935000875
:10245000248E0008F8B504461D4617460E460D4862
:10246000FEF7D6FA39460B48FEF7E2FAF2B22146F9
:102470000848FEF7E6FA0749C81FFD38FEF733FAA9
:10248000054C601CFDF705FF217800020843286019
:10249000F8BD0000440D0020400C0020FFB585B0C1
:1024A0000F46044607ADF02200211D480E9E05F0A0
:1024B0003BFE1B4A1021204604F0D2FC10220021D2
:1024C000684605F031FE0121684601700622394652
:1024D0006C46401C05F010FE02222946E01D05F066
:1024E0000BFE0F4A6846089904F08FFC1022002169
:1024F000684605F019FE0221684601700622394639
:10250000601C05F0F9FD02222946E01D05F0F4FDEE
:10251000034A3146684604F078FC09B0F0BD00007B
:10252000500C0020F8B517460E4605461C46F02212
:1025300000210B4805F0F8FD094A1021384604F047
:102540008FFC074A2146284604F05FFC102E06D374
:1025500021462846024A1031103004F056FCF8BDDE
:10256000500C0020FEB50446002002260190002CED
:102570005FD03548016BCA0701D1C80601D50120DB
:10258000FEBD002069460870014614222F4805F060
:10259000CBFD2E48012545702078002804D0012865
:1025A0000AD0032843D118E0274869460573087804
:1025B000C006C00E403008E023484573E17B01733C
:1025C00069460878C006C00E8030087020790190F6
:1025D0000E20A6892056A7680BE01B4869460573A4
:1025E0000878E0210843694608700A2026892056A9
:1025F00067681549097900290ED1694608721248A1
:10260000022202A9007C02F087FA002811D00F49AB
:102610006846007AE839487033463A466846019978
:1026200003F086FE060006D00749002048713046B8
:10263000FEBD0320FEBD0548217801700248173019
:10264000017829430170F2E7F4000020100C00200B
:10265000FEB500250446002816D0304927782E48BC
:102660000E462836027C3B0004F0B3FB1A1012150C
:1026700017191C1E21232527302E383A3C3E404294
:1026800044464A484C4E50520320FEBD407C00E078
:10269000C07820713DE00079FBE7406C00E0806C81
:1026A000606036E01E48FBE71D481030F8E7807C8C
:1026B000EFE7C07CEDE7162009E018493C39886D4A
:1026C000C96DA160606024E0142000E01320694619
:1026D0000870104602F0ADF90198E1E7087ED8E7EE
:1026E0004868DDE78868DBE7C868D9E70869D7E7A5
:1026F0004869D5E77078CCE74878CAE73078C8E70A
:102700000878C6E7406ACBE7806AC9E7006AC7E78E
:1027100002252846FEBD0000F4000020280B002002
:10272000EC070020FEB50024002805D061490A8E80
:10273000D20703D00120FEBD0320FEBD5D4B07780C
:102740001E7C00225C4D3B0004F043FB190E1F224F
:1027500025282B313A3FB1424F495A606366696C74
:102760006F7F9B8CABAEB10000794874002804D019
:10277000012805D0022803D103E05048406B804770
:1027800096E04A7100F0C6FF92E00079C8708FE0D1
:10279000007908718CE04068486489E0406888648A
:1027A00086E0416800297AD01022454805E041685A
:1027B000002974D042481022103005F09DFC77E0CB
:1027C0000079887403F052FE72E00079C8746FE0FB
:1027D000394982683C394068CA65886568E0406864
:1027E000019001206946087203E040680190684644
:1027F000027201A9304601F0DBFB00284FD057E000
:102800000079411E0E294AD8287651E04068686058
:102810004EE04068A8604BE04068E86048E04068EF
:10282000286145E04068686142E0017968460170CE
:1028300003226946304602F06FF900282FD068461F
:1028400001781D482830417032E0007969460870EF
:102850000222304602F060F9002820D06846007855
:10286000687025E00079694608700522304602F05C
:1028700053F9002813D0684601780F4828300170BA
:1028800016E00079694608700422304602F044F9E7
:10289000002804D068460078287009E0FFE7032488
:1028A00006E04068486203E04068886200E0022475
:1028B0002046FEBDF4000020280B0020248E0008D6
:1028C000EC070020F0B50446022087B00290002CEF
:1028D00031D03F4D288EC00714D10C2200213D4835
:1028E00005F022FC3B4F0120787020782E461736E9
:1028F000002804D0012856D002284CD15FE0288E51
:10290000C00602D5012007B0F0BD6068002812D0D3
:10291000A06800280FD0E06800280CD0207C002898
:1029200009D0694608731A2203A9287C02F0F4F83A
:10293000002802D009E00320E5E71B206946087063
:10294000287C02F076F8019820743078042108433E
:102950003070207838706068A863A068E863E06829
:1029600028640020A8756946087402F0E1F8A87D83
:102970006946401C888205A9287C01F002FB1549A4
:102980000023FC3948701A46194604A803F0D0FC0D
:102990000290002805D0002068713078FB210840A3
:1029A00030700298AFE73078042108433070207807
:1029B0003870002211460220FEF798F8E8E73870D8
:1029C0003078042108433070A08803F063FDDFE70E
:1029D000F4000020240C0020FEB508AF70CF6F4635
:1029E00070C700F001F8FEBDFFB50D46002681B0AE
:1029F0001F460124F0223146294805F095FB284A5C
:102A00001021039804F02CFA26480A994171877125
:102A1000390AC171390C0172390E41720B998172F8
:102A20000B991F4F090AC1720B99090C01730B997D
:102A3000090E4173203F18E01A48194AC473641CF8
:102A40001146A4B2203904F0E0F900203118019AAF
:102A50003B5C525C401C5A400C9B80B25A5410287C
:102A6000F4D3103D1036ADB2F6B2102DE4D2002DE5
:102A700013D00B4A0B481146C473203904F0C5F932
:102A8000002008E0019A3118525C3B5C5A400C9BD4
:102A9000401C5A5480B2A842F4D305B0F0BD0000E7
:102AA000500C00206C010020F3B52C4889B00D4675
:102AB000427869460A760078294C0877207A617A4C
:102AC0004018C6B2002D41D000216846017121791D
:102AD0004171E06A214F0290283F7978684601737E
:102AE0003978417320462C30009007AB06AA01A923
:102AF000207C01F037FA7978684641740621017428
:102B0000E07C002802D007206946087404A9207CD4
:102B100001F08FFF0598C0B26870B04218D3801BD7
:102B200028706846182141560022099804F0B6F82A
:102B3000002811D06846182141563246099804F001
:102B4000ADF8002806D000200BB0F0BD0320FBE755
:102B5000002028700920F7E70820F5E7500B002037
:102B6000F400002038B504466846054D047008227C
:102B70006946287C01F0D0FF002800D02C7538BDB4
:102B8000F400002010B502790168407905F026FDB7
:102B900010BD70B50C46054605F0BEF8687105F02D
:102BA000EFF8207070BD0000EFF3108172B6034A99
:102BB0001368034381F3108813607047BC01002041
:102BC000EFF3108172B6034A1368834381F31088D0
:102BD00013607047BC010020014800687047000086
:102BE000BC01002010B507480068002802D0FEF79D
:102BF00085FA10BDFEF78EFAFEF7D8FAFFF772F8E5
:102C000010BD0000BC0100200249886401201C396D
:102C10004870704750000020F0B5054640788BB0F2
:102C2000002823D12878002801D0012802D1284685
:102C300005F0E6FC5B4C2278012A02D1A089401CF9
:102C4000A081687B012811D1E978574EE0290FD087
:102C50003046143041712A7B0271A968006805F082
:102C60004BFA306901693046143088470BB0F0BD2B
:102C7000002001270221002A0BD0AA681278627076
:102C8000130004F0A6F8082B3A3E4042565C7C053F
:102C9000ECE72A7B042AE9D1AA681378012BE5D155
:102CA0005378012BE2D19378012BDFD1D278012A1E
:102CB000DCD13D4AB070E023143253711171A08110
:102CC000A073E07320742770677068460170077105
:102CD000FFF728FD0020FFF745FFC7E7A081207020
:102CE00068460173B068417A6846017403A8FFF72B
:102CF00019FD012005F020F8B8E72B4814300171C8
:102D0000B4E7B7704BE0B07049E02748297B143036
:102D10000171026804211170012106E0AA680368AC
:102D2000525C521C5A54491CC9B202798A42F5D8E5
:102D30009CE76846077606A8FFF7C4FD96E7A081E2
:102D40000546207068460170B068417A6846017196
:102D5000FFF7E8FC012004F0EFFF68460576124813
:102D600003211E300790083008900830099008A809
:102D7000017206A8FFF7A6FD0520307076E7287BD4
:102D800003280CD168460176A86881784278080249
:102D9000104341BA6846818306A8FFF793FD677028
:102DA00064E70000B80500203400002010B5017869
:102DB0000E4A0123002902D0012914D107E04078EE
:102DC000002801D013700EE0022010700BE0417853
:102DD000002908D106490C78012C04D18B73047AA0
:102DE000CC73407A0874537010BD0000340000208A
:102DF000B805002010B50B4803F020FF0A484179C0
:102E0000002905D001218173016B042291430163E4
:102E1000407C022805D1044808221730017811436C
:102E2000017010BDE40B0020F40000203EB5012528
:102E300068460570FFF70CFC002805D1684600794C
:102E4000074C012804D02570064803F0BFFE3EBDA4
:102E500000F096FE03F08CFA607005202070F3E716
:102E600034000020CC050020FEB500277F4803F089
:102E7000E5FE7F4D7F4C2878010767D5216B4A0618
:102E800004D540229143490849002163774942070C
:102E9000AC310026002A01DBC20710D0734A9832F9
:102EA0005378022B02D04B78022B08D1236B5B089E
:102EB0005B002363637B537116710127966062790F
:102EC0003A436D4F28D142070AD50A78002A09D122
:102ED000A6724978002905D1397EA172666201E0A7
:102EE000C10719D0397EA27A914201D981070ED546
:102EF000A672E06A401CE0626078002802D1606A35
:102F0000401C6062206B40084000206304E0F72111
:102F10000840287000F050FC2878800717D5534AE5
:102F200098321079012803D0607B217B88420ED92A
:102F3000A67366716078002802D1606A401C6062E6
:102F4000607B5071206B40084000206353E0A07B01
:102F5000002850D0208EC0064DD4A673607B217B04
:102F6000884236D2082834D8401C6073C0070FD07E
:102F7000684606706946207C01F05BFD01203856EA
:102F8000019A411E914201D9401E00E0104678701E
:102F900001217956227A207803F080FE002806D09D
:102FA0002878F7210840287003F07EF923E02F48A5
:102FB000072198304170216B4908490021636671EF
:102FC0000671617B417179788170607800280FD03B
:102FD00011E00121207C01F033FD206B400840000E
:102FE00020632248667198300671617B4171ECE77D
:102FF000606A401C6062206B810702D50221884311
:103000002063002814D07D21C900184803F0CCFDAE
:10301000164803F0DBFD2878800708D5A06D4168CD
:103020001248803088472878FD2108402870FEBD6E
:103030002878C00708D0A06D01680C4898308847F0
:1030400028784008400028702878400708D5A06DEF
:1030500081680648AC3088472878FB2108402870F2
:103060002878F72108402870D5E70000780B002069
:103070000B010020F4000020280B0020FFB50446BF
:10308000002097B00D46014613900F900746109010
:10309000FD48119010300A90002015901490FB48C4
:1030A00001711838C2811A9A0274F94AD37B4374A9
:1030B000C17081704171816001734173817441619C
:1030C0000170507C022802D0F248406B8047EF48E4
:1030D000403803F0B3FD2078694608704109281F85
:1030E0006E1E16911290012910D003297ED0052959
:1030F0007CD007297BD0E54901201839487000F0C1
:1031000019FDE348C17B002972D0DCE1E04FF8787B
:10311000002804D0DD4901201839487097E0B1B289
:10312000DD4E601C731C3A6CFFF7FCF968460078B2
:10313000307012980FAB81B230463A6CFFF78AF9C3
:1031400070192038427F017F12020A43817FC07FBD
:1031500009041143000608430F9988424CD1CA481C
:10316000C94B103000907A8B711C386CFFF796F9C0
:103170007079317900020843B179C44C09040143E4
:103180007964307AF17900020843717AE83C0904E5
:103190000143B07A00060843B864F07A4106490F4B
:1031A000617601072046090F20300170307B00074F
:1031B000000FA06001D10120A0607D21C90048431B
:1031C000A0604018E060B448113D0D30039068469F
:1031D000057403A9387C00F0DDFEAC4900201431F1
:1031E00048700120F8700846D43802E009E057E141
:1031F00064E14078607084E7A44905201431487088
:103200007FE7A178607809020143E078A04A0004D2
:1032100008432179090601430791926C05209142E8
:103220009B4918D00F6A0CE03A6807998A4207D187
:1032300001211591391D119110310A917E6A0BE01F
:10324000BF6A002FF0D1092190481838417000F072
:1032500071FC1BB0F0BD8E6A225C69460A70401C8E
:103260000D92235C401C205C01021007000F083007
:103270000C90601919432038037F109A1343427F42
:1032800012021A43837FC07F1B04134300061843B6
:103290001090881B80B20122D2030FA9099090429E
:1032A00012D236180120029100901298019681B234
:1032B0002046079B119AFEF783FF10990F988142D1
:1032C0001AD10120149017E000B201223018120424
:1032D00080180E900291019012980122009281B202
:1032E0002046079B119AFEF76BFF10990F988142B9
:1032F00002D101200E9E14900E2069460875644884
:1033000005A9007C01F095FB06990998814205D832
:103310005E48082118384170466198E714980028E3
:1033200075D05A48002218384270159981700D994D
:10333000C906C90F417182600273544946615448FD
:103340004A70C26242721598062200280CD04F487B
:10335000022118380170796AB14203D1002901D0E5
:10336000427074E77E621EE0169805280CD048482B
:1033700046490023837118390B70806AB04210D11E
:1033800000280ED04A7062E74148404A012181710D
:10339000183A1170806AB04203D1002801D0012090
:1033A00013903B4886620C98281A001F002842DDC3
:1033B0000C9F0C987F1CE91B091F205CC9B20B9164
:1033C00032491839C87000280D9821D0000707D05D
:1033D0001A980821C3B2781EC2B2204600F008FC39
:1033E00001202D4D009001960295E019079B0A9A45
:1033F0000B99FFF7F1FA1398002800D081E62348D3
:10340000183885600B9901730121417320E045E074
:103410000007F3D120480290012101960091E019A4
:10342000079B119A0B99FFF7D7FA1A980021C3B29C
:1034300019480B9A07E00D98000706D01A98082142
:10344000C3B220460C9A00F0D3FB13980028D5D1C4
:103450000D98800605D50D4901200871183988742A
:1034600007E00A48002101710948417B007B814245
:1034700003D906482C3803F0E1FB05480222173037
:103480000178114301703CE6EC070020100C00208D
:10349000F4000020248E00080A0A00200A21D3E646
:1034A000611C2A460F4804F027FE0F4803210170D3
:1034B000002141700B4981600673DEE7407C0228E1
:1034C00001D100F027F90948082201781143017061
:1034D00005480121803803F067FB0348803803F07A
:1034E00075FBB6E60A0A0020F80B00200B0100204D
:1034F00010B50E4C607C022803D00D48406B80470D
:1035000001E000F007F9E07B01280ED16179042089
:10351000002901D007494870064908221431487033
:103520000248173001781143017010BDF4000020EB
:10353000248E0008100C002010B50E4C607C022870
:1035400003D00D48406B804701E000F0E3F8E07BDA
:1035500001280ED161790320002901D00749487064
:103560000649082214314870024817300178114387
:10357000017010BDF4000020248E0008100C002003
:10358000F0B589B003F096FA3A4C0546607C022803
:1035900003D03948406B804701E000F0BBF8A078C9
:1035A0000026364F00282CD038465438216E03F0C0
:1035B000FBFA3846543803F009FB607C02280ED031
:1035C00038464038616E03F0EFFA3846403803F071
:1035D000FDFA607C022802D06079002821D00F20FB
:1035E00069460870207C01F024FA0198616E411848
:1035F00022482C3803F0D8FA20482C3803F0E6FA99
:103600000FE01E497E7003201431487019481730AE
:103610000178002901D101210170C9B208221143AA
:103620000170617D68460172039502A9207C01F05A
:103630004FFA2565617DE27868460274227D427406
:10364000817403F037FA0590606B069004A9207C22
:1036500000F0A7FCA18B606B4143081A616D401814
:1036600060656079002803D17E70A07A401CA0724A
:1036700009B0F0BDF4000020248E0008100C0020DA
:1036800010B50B48407C022803D00A48406B8047A5
:1036900001E000F03FF808490220487014314870FA
:1036A00003480822173001781143017010BD000053
:1036B000F4000020248E0008100C00203EB51248B3
:1036C00003F0BCFA114C0020E0730F4D627D694697
:1036D0000A70943D6A784A706A7E8A70E27C4A7207
:1036E0008872C872607C022802D10948806B8047CA
:1036F000054A69464032207C01F0D6F96846807A56
:10370000696801F0A5FA3EBDBC0B0020F400002062
:10371000248E00083EB5144803F090FA134C694615
:10372000607D08701048104D883800784870A83DBA
:10373000E8690190E07C48720120C872617C02292E
:1037400000D000206946084A88722C32207C01F0A3
:10375000ABF9002807D06846807A696801F078FAEA
:103760006846C07AE0733EBDD00B0020F400002014
:103770003EB5012468460470FEF76AFF002805D1B3
:10378000684601790448012901D004703EBD032137
:10379000017044703EBD00003400002010B50548A3
:1037A00003F04CFA01210520002209030007FDF770
:1037B00059FE10BDC80100201FB5194803F03EFA9C
:1037C000184C1021206B8843206320461730007866
:1037D000400721D512487C30007800281CD101F028
:1037E000A7F9A07D6946401C888103A9207C00F0D0
:1037F000C8FB0B498039487000206946087121795F
:103800000246C9010A4369460A720346024600900D
:1038100002A901A800F03CF802F046FD1FBD00001F
:10382000A80B0020F400002010B5034803F006FAAE
:10383000FFF79EFF10BD00008C050020F0B5064686
:1038400000242046002E01D0002A1ED10020F0BD09
:10385000355DAF1E3B0003F0BCFA091614160612C4
:10386000140E16061600641C1554E4B2401CC0B2B7
:10387000335D135400E01554401CC0B203E0A41C97
:1038800000E0641CE4B2641CE4B28C42E0D3F0BDFE
:10389000F0B50F4687B000210691A24C0C9D019215
:1038A00021831E1E617100D10025EAB222709E4D57
:1038B0000178297000780121400908D0022845D0FC
:1038C000042841D007287DD0022007B0F0BD9748DA
:1038D000E26C03699B1A23664069801A6066218343
:1038E000681C0822E16B04F012FC208B08220830CF
:1038F00080B220832818A16B04F009FC208B0830CB
:1039000020838B48C069804701466083208B06ABCB
:103910002954401C80B2090A2954401C2083C1B29A
:103920008148226CFEF796FD208B06992954401C95
:1039300080B20A0A2A54401C80B20A0C2A54401C45
:1039400080B2090E2954E9E001206071E078002876
:1039500072D00121684601733878744BC1096846FA
:103960004173E06A049071485A1C417868460175B9
:103970006E480178684641756A4803A92C3000906A
:10398000207C00F0EFFA81013878BF221040084314
:103990003870664801214156227A207803F07EF97A
:1039A00000284BD06148E26C8168891A2166C068A2
:1039B000801A6066A079002807D00020A0713878AE
:1039C000202100E0A1E0084338705748A16C417005
:1039D0000A0A82700A0CC270090E017139784171AD
:1039E000A18C8171090AC1715048217A1F38401891
:1039F0004E490825627A103904F07EFB207A617AFC
:103A00004018C1B22172002E23D02078002820D087
:103A10000F2928D8E079002825D03A7810095218C3
:103A200012070001120F104338703F4A3F4F507188
:103A300000201F3F0AE0FFE7072046E7082044E791
:103A40003B5C53556D1C401CEDB280B28842F7D3ED
:103A500009E0002907D0E079002804D0334E217016
:103A60001F3E00200190314A0027103A1046E771AE
:103A70000F38FFF7E3FE6072002801D00120E071EB
:103A800000202072002E1DD0217800291AD0264F48
:103A9000019878556D1CF81D019AF830636AEDB2F3
:103AA000002A2AD000220092019302903A46A36C89
:103AB000103A3046FEF798FF1B4978192278FF31FB
:103AC00004F01AFB207806AB2918218300206E46EB
:103AD000626A0DC6144A1448203AA36CFEF770FBC4
:103AE000114A208B069911540B0A121853700B0CB3
:103AF000090E9370D170001D11E0002200920A4A55
:103B000001930290203AA36CD3E7002B08D0002A3F
:103B100006D0681C314604F0EFFA2078401C208360
:103B20000020D2E6F40000200C080020280B002022
:103B3000248E000810B5104C4021206B08432063F0
:103B40006079002801D0FFF755F9E07B002804D107
:103B5000607C022801D1FFF7DDFD07490A221731F9
:103B60000878104308700121044803F01DF8034849
:103B700003F02CF810BD0000F4000020780B0020AA
:103B800030B419480178012908D01848174900694C
:103B9000891CC268084630BC123010471349847B28
:103BA000143101230A68012C07D04478012C11D06C
:103BB000042C00D1437030BC70470024847303246C
:103BC0000C71052414700C68C27B62700968027C59
:103BD0008A70EFE702230B7183891B0A137009684F
:103BE000007B4870E7E70000B805002034000020A3
:103BF000FFB5054689B0A74816460C46089023E154
:103C0000285D641C801EE4B2030003F0E2F809069C
:103C100012636FA5B2D8F1EFEE009E490020DC31AF
:103C20004870285D0872641CE0B22A5C4A72401C2D
:103C30004EE0002069460872087308770874281956
:103C4000401E0590301B401C087604A907A801916E
:103C5000914F009003AB02AA05A9387C00F0FDFE4D
:103C60000090C04340071FD13879002811D18948FE
:103C7000012120386B46082241569A56914205D1BF
:103C8000002141560C201856814202D0002000909D
:103C90000AE080486946097A203841706946097B04
:103CA00001706946097F0176002706E000220320A3
:103CB0000099FCF71BFF7F1CFFB268460521007CC2
:103CC000FCF716FAB842F1D86846007C2018401E6E
:103CD000C4B2B9E0285D704A641C0121D0728140F1
:103CE00091830022E4B211460420ABE0285D400637
:103CF000410F68464170285D641C0107090F684642
:103D00000170E0B2295C401CC0B201912A5C401CE9
:103D100012021143C0B201912A5C401C12041143EB
:103D2000C4B208466421484301905B486946007C60
:103D300000F0C5FE0146C84340070AD16A4608980C
:103D4000127802705348019A2038C2616A4652784C
:103D500042760022052075E04F48FF21C06D002803
:103D600004D00068002801D08047014606200C9A44
:103D700068E0285D69460874641CE0B20391295C20
:103D8000401CC0B200912A5C401C12021143C0B218
:103D900000912A5C401C120411436422514300919B
:103DA000C0B22A5C401C6946C4B20A723A4803A9F0
:103DB000007C00F063FE01460022072042E0285DFF
:103DC000641C0007000FE4B2002800D101207D210F
:103DD000C90048432F497D222039D20088608018CD
:103DE0000022C860114608202CE030E031E0FFE7F7
:103DF000285D00216A46641C11705170E4B281068E
:103E000001D501211170C10601D5012151700007B2
:103E1000000F907020481146007C00F074FE401C9A
:103E200012D06846017808980022017168464178EE
:103E300008984171684680781849095C0898817132
:103E400011460920FCF752FEB44200D2D8E60DB06C
:103E5000F0BD285D69460870641CE0B2295C401C16
:103E6000C0B201912A5C401C12021143C0B2019100
:103E70002A5C401C12041143C4B208466421484322
:103E8000019005486946007C00F084F90146002253
:103E90000A20D7E7480B0020F4000020DC9300083C
:103EA0000449C968F0221140034A0909515CC8401D
:103EB0007047000000100240688F00080349C9687D
:103EC000034A4905490F515CC84070470010024041
:103ED000818F000810B50C49CA680C2002400B48BD
:103EE00005D0042A09D0082A09D00C2A09D049682B
:103EF0000904490F491C884010BD054810BD0548FC
:103F000010BD00F009F810BD001002400080000054
:103F10000024F40000127A0010B50B48C168012398
:103F20001B040A4A194002D0994200D15210C168BC
:103F3000C0680902890F8002054B000F185C491CFC
:103F40005043FCF7D5F810BD001002400024F400E7
:103F5000788F000810B504F0C3FD10BD10B5FDF753
:103F600017FD10BD70B51C46049B15460E4605286E
:103F700001D0002070BD22462946304600F014F9D9
:103F800070BD10B5052801D0002010BD084600F016
:103F900039F910BD10B5052802D1084600F052F9D4
:103FA00010BD10B5052802D1084600F07DF910BDFE
:103FB00010B5052801D0002010BD084600F0A2F978
:103FC00010BD10B50B0914099C4201D3914201D3D5
:103FD000002010BD5A000C07835A240F0121A14074
:103FE0008B438352012010BD30B500280AD0002930
:103FF00008D0002304E05C000D5B5B1C0553DBB2C2
:104000009342F8D330BDFFB50E461946099A02987F
:1040100000F0B8F8002824D0002425461DE0002335
:104020006F00F15B0120984001420ED0E0180C2196
:1040300048430A9941180820085602110007011741
:10404000029800F09FF801280BD05B1CDBB2102B0C
:10405000E7D310346D1CE4B2EDB200988442DED395
:10406000002004B0F0BDF0B58446964600206246BC
:10407000002A01D0012215E00020F0BD4C0063466B
:104080001F5B10260024234615469D40BD4301D1E9
:10409000641CE4B25B1CDBB2B342F5D32018491CAC
:1040A000C0B2C9B27145E9D3F0BD000006498842EB
:1040B00001D2642070470549884202D27D20C000A9
:1040C000704703487047000080EE3600803F5C0276
:1040D0001027000003780022032B14D14278130725
:1040E0001B0F12068B70120F4A7082788A80C37879
:1040F0001B021A438A8000794206520F0007CA70D9
:10410000000F087005221046704741607047F7B5F0
:104110000025ED43002482B01646274627E002988A
:10412000002829D00C20039960434018009001908A
:10413000406802F0C5FC014601988068814202D3C4
:104140000098876011E000280FD00098406802F0C6
:10415000B7FC00998968081AA84206D200984068FE
:1041600002F0AEFC009989680D1A641CE4B2B442F6
:10417000D5D3284605B0F0BD0C2003990025604337
:104180004018DEE7884203DB904201DC01207047E3
:104190000020704710B5052801D0002010BD08464A
:1041A00000F04CF910BD0000F0B5082409260457B2
:1041B000865747681F6047780025012F1BD1002CC8
:1041C00008D04368402B00D30125602B13D3DB06B6
:1041D00003D010E0002018600DE0002C0BDD641E01
:1041E00064B2002C07D10078012804D104480727C5
:1041F00003883B4303800C7016702846F0BD000016
:104200007C01002070B50588002430212846FBF78A
:104210006FFF00290CD0E8060CD018212846FBF7C8
:1042200067FF002908D0280708D0680708D00524B0
:10423000204670BD0124FBE70224F9E70324F7E7D9
:104240000424F5E7F0B587B00646502069460872A9
:104250003079102826D1002403250F463068611CD0
:10426000005D00903268515C09020843009032689A
:10427000A11C515C0904084364214843009006D006
:1042800068460397057403A800F052F804E06846F6
:10429000057505A800F0BAF8E41C6D1CE4B2EDB297
:1042A0000F2CDBD307B0F0BDF8B5054680780C21A4
:1042B00048431249124E4718787A0C214843345A21
:1042C0000021821991602878002808D06878012898
:1042D00004D1A86801466143081A9060F8BD686877
:1042E000FFF7E4FE844200D92046A9680C22484327
:1042F000411A787A504380198160F8BD5C0E002025
:104300008001002010B50179002903D0012905D0D2
:10431000002010BD01680122044803E00168034841
:104320000122801CFFF760FE012010BD7C010020EF
:10433000F8B505460020694608702E790446074600
:10434000102E01D30320F8BD28680722007A00212F
:1043500000070017FFF716FF002800D10124286886
:1043600008214156072208110021FFF70BFF002802
:1043700000D10124296808200856010709170211F5
:10438000914200DD0124032E12D2002900DD012418
:10439000001107220521FFF7F5FE002800D10124B6
:1043A0002868184902680C207043085882420AD1D4
:1043B00028686946006802F091FC002803D03C425E
:1043C00003D00620F8BD0127F9E7002C01D0052015
:1043D000F8BD002F01D00420F8BD0C203146414328
:1043E00008482B6808180ECB0EC0694609780C38AF
:1043F0004172054801220188B2401143018000202A
:10440000F8BD00005C0E00207C01002010B5017892
:10441000032901D2002010BD0C22064B4A43002084
:10442000D21810605060906010220348FFF7C9FD59
:1044300010BD00005C0E00207C01002038B5054650
:104440000020694608700324686802F047FC0028D1
:1044500000D1022429780C20414306484258002A02
:1044600001D1FD221440032C02D108186A68426071
:10447000204638BD5C0E002070B506787D210446CC
:10448000C900002001224D00330002F0A2FC1C37BD
:104490001A1A371A190F13191B1D1F212325283724
:1044A0002D372F31343637373739391A0120205616
:1044B000144903E00120134920560831085C1DE02F
:1044C000626070BD104819E0616070BD656070BDCC
:1044D0000E4813E00E4811E0012080030EE00D4865
:1044E00004F022F8401909E00B4807E00B4805E00A
:1044F0000A48801C02E0102000E00948606070BD9E
:104500003020FBE7FA930008B80B00008813000086
:104510007017000018FCFFFF08E6D3337C01002071
:104520005C0E002070B5104A002807D0012804D185
:10453000901E018812881143018070BD0B480C4900
:104540000346203338CB38C103462C3338CB38C12F
:10455000383019C819C10720108003490122881E6C
:10456000FFF742FD70BD00007E010020EC930008C3
:104570005C0E0020FFB5072489B00646002568467A
:104580002F4605813AE0306803A94019FFF7A2FDE4
:10459000002836D02818C5B26946088A0881C97B28
:1045A0000724084304D0481E042801D9072901D351
:1045B000062423E0002006290CD06B4601221B892B
:1045C00082401A4216D00C222E4B42439A58002A9F
:1045D0000ED00FE00C222B4B42439A58002A09D0F0
:1045E0006B4601221B8982401A436B461A8101E007
:1045F00064086400401CC0B21028DCD33079A842A3
:10460000C1D8204907200191009068460D228256AA
:10461000002302A91020FFF7F6FC002801D1FD209D
:10462000044069460E20085605220021FFF7AAFD26
:10463000002808D169460E200856002801DA8F7339
:1046400001E0FB200440072C0AD16846007B0028CB
:1046500002D10120694608730B4869460989018027
:104660006846417B0A9801706846817B0B9801700F
:104670006846017B0C9801701298057020460DB0B9
:10468000F0BD00005C0E00207C0100203EB50168FA
:1046900003240A68002A0DD0009100796946087148
:1046A0006846FFF745FE002812D004280BD00528E5
:1046B0000DD10AE000796946087202A8FFF7A6FE4C
:1046C000002804D004E0022402E0012400E00024D9
:1046D00020463EBDF7B588B0044600256846057300
:1046E0001646049505950695012229462448079506
:1046F000FFF7B9FC002804D12148072201881143A3
:104700000180606802F0DCF9216888421ED31C49F0
:10471000A07A0522091DFFF7FAFC0746184803AAEC
:1047200004A9001D6B4607C3217A607A154B144A11
:10473000FCF75CFA002812D0411E002003F0F4FEC2
:1047400004A9095C0998017035600DE06946087B91
:10475000401C0873606802F0B3F921680F1A6846BC
:10476000007B002803D0376001200BB0F0BD044867
:10477000072201881143018000203560F5E7000021
:104780007C0100205C0E0020F3B501243C4E054660
:1047900004574768F0688FB08047002802D0002097
:1047A00011B0F0BDE87A002810D1A878201A40B2E4
:1047B000002800DA002044B229780C204143314817
:1047C000475808184068002800D007460520032CE9
:1047D00006D0042C04D0052C04D0062C04D004E010
:1047E000082002E00A2000E00E2002902046FCF79C
:1047F000C0FA0C90244800570B90716938468847DE
:1048000000200121072C20D001220A92AA7A07ABAE
:10481000069007C308210590019103900490009031
:104820000123376A18460B9A0C99B847687A012811
:1048300022D015480830005D326E0D30C1B20A98A2
:104840009047109804700120AAE700220A92AA7AE1
:10485000099205910D4906900522009101927D2152
:104860000B9AC900079008904A4302900390049065
:1048700000230749376AD8E703481030DBE7000018
:10488000248E00085C0E0020F2930008854501008C
:1048900050C3000070B50F490546896A0724406877
:1048A0008847002800D1062400202856072200212E
:1048B000FFF768FC002801D1FD20044001202856A4
:1048C00005220021FFF75EFC002801D1FB200440F7
:1048D000204670BD248E000810B5416800780C2277
:1048E0005043054A8018407A0C225043034A8018EE
:1048F000FFF70BFC10BD00005C0E002080010020C3
:1049000030B402214156064A0C23515602785A43CC
:10491000044B9C5882880448436C204630BC18479E
:10492000EC9300085C0E0020248E0008F7B50446C6
:10493000012020562649264A0E5602216156921F12
:104940008CB051560A91FCF714FA099020780C218A
:1049500048432049204D08586969884761780020FC
:104960001E4B0122072921D0014605900690079091
:104970001046089308220490019000960292039139
:1049800001276E6A099B00220A99B0472A6E217995
:1049900038469047EA6A2179384690470E99086070
:1049A0000D98A178017001200FB0F0BD052107908E
:1049B00002917D21002708930492C900059006907A
:1049C0004E430190039000966E6A054A099BDBE70F
:1049D000F29300085C0E0020248E0008B80B000043
:1049E000A86100000020C043704710B5052910D011
:1049F00006DC022909D003290BD0042917D108E0CD
:104A000008290FD01A2912D10EE00023C35607221D
:104A100002E00023C356052200211846FFF7B2FB2F
:104A2000002800D0012010BD00783028FAD20020E4
:104A300010BD10B5052802D10846FFF71DFD10BDB9
:104A400010B5052802D10846FFF76CFD10BD0528FA
:104A500001D00020704701207047F8B51C460E4673
:104A6000069B07991546052801D00020F8BD009146
:104A7000224629463046FFF77DFDF8BD10B50528D2
:104A800001D0002010BD0846FFF700FE10BD70B534
:104A900014460D46052801D0002070BD1A46214657
:104AA0002846FFF717FE70BD10B50B46052801D04C
:104AB000002010BD11461846FFF766FE10BD10B568
:104AC000052801D0002010BD0846FFF7E3FE10BD09
:104AD00010B5052802D10846FFF7FEFE10BD10B53F
:104AE000052802D10846FFF70BFF10BD70B514462C
:104AF0000D46052801D0002070BD1A4621462846E3
:104B0000FFF714FF70BD10B5052801D0002010BDBF
:104B10000846FFF767FF10BD10B50B46052801D00A
:104B2000002010BD11461846FFF75FFF10BD0000C2
:104B300010B520480021C170012281624262C16229
:104B40008172027342738173C172828301724172F6
:104B50008270194A13461478283B1C7054785C7094
:104B600054685C6094689C60D468DC6014691C6163
:104B700054695C61547E5C76127E1A761A463C3A21
:104B80001446803418CCD4659365134684331C795D
:104B90005C3214715C7954719B79937141718171AC
:104BA000C171026A01E05162926A002AFBD141752B
:104BB00010BD0000F4000020500B002070B509204B
:104BC00000F0B5FC0546062000F0B1FC0404072007
:104BD00000F0ADFC00020443082000F0A8FC0443F0
:104BE000200A0102184A611A514380315043090AD0
:104BF00046180021092001F029FB3B2000F097FC1A
:104C00004024204301463B2001F020FB3B2000F0E4
:104C10008EFC8006FAD40D4800F016FE3B2000F012
:104C200086FC204301463B2001F010FB3B2000F0B6
:104C30007EFC8006FAD42946092001F007FB3046A5
:104C400000F002FE70BD0000093D000000A1BC3371
:104C50000200044802D0C16B00200847C26B08461E
:104C600010470000248E0008012070470148007999
:104C700070470000DC020020F3B5034600206D4AB7
:104C800087B00146002B02D0012B48D14FE0694884
:104C9000C069FBF7C5FC009001910898FBF7C0FCC8
:104CA00006460F46302000F042FC4007800F02D03D
:104CB0000024614D01E000242546272000F037FC48
:104CC0005C494007400F098C401C4018FBF7A8FCCA
:104CD000584A203202929278012A21D00022564B63
:104CE000FBF7E2FA22462B46FBF7DEFA32463B465A
:104CF000FBF7DAFA029A1279012A14D0002213463D
:104D0000FBF7D2FA0322FBF761FC019B009AFBF749
:104D1000E5FB0022494BFBF779FB03F011FC85E032
:104D200000221346DCE7002201239B07E8E700246A
:104D3000106C2546072804D0082805D0092808D17A
:104D400005E000243E4D04E000243E4D01E03E4DD0
:104D50000024576C0120B840FBF74EFC02460B467E
:104D600020462946FBF7BAFB02460B460020324993
:104D7000FBF7B4FB2F4E044640360D467089FBF717
:104D80004FFC0022314BFBF78FFA22462B46FBF7F4
:104D90003DFB05910490707A001DFBF741FC0391E7
:104DA0000290307A002800D00220381A8000FBF7E9
:104DB00037FC009008980191C000B900401AB17BFF
:104DC00009014018317B002900D01421401A1C3001
:104DD000FBF726FC019B009AFBF780FB02F0E0FC4E
:104DE000039B029AFBF712FB002207460E4613466E
:104DF000FBF742FC02D23846314601E00020014672
:104E00000022134BFBF750FA22462B46FBF7FEFA23
:104E1000059B049AFBF748FA0022084BFBF7F6FAC9
:104E20000C4A0D4BFBF740FA02F010FEFBF706FCB4
:104E300009B0F0BDDC0200200000F03F00408F40D0
:104E40008084FE4080840E4180841E410000114019
:104E5000000020402B8716D9CEF7EF3F70B51D49D3
:104E600008601D491D4801F037FE1C481A491430DE
:104E700001F032FE19481849283001F02DFE0122B8
:104E8000052011030007FCF7F3FA00F0A3FBFFF77E
:104E900095FE002000F048FD0E48001D00F07CF853
:104EA0000F4D002460002618A85D00F00DFD70195C
:104EB0008178407801F0CAF9641CE4B2102CF1D377
:104EC000002000F001FD054900206039087105202F
:104ED00070BD0000040000206D5400083C03002059
:104EE000888E000810B586B014216846FBF7B0F92B
:104EF0000D48019002200D4C02906A461021204678
:104F0000FCF7A0F96A4602212046FCF79BF96A46A5
:104F100001212046FCF796F901216A46490304481D
:104F2000FCF790F906B010BD00001110000400500D
:104F30000008005030B585B014216846FBF788F9A9
:104F4000124801900320124D0124039002946A46F6
:104F500010212846FCF776F96A4602212846FCF71C
:104F600071F96A4601212846FCF76CF96A4661032B
:104F70000848FCF767F90020029005206A462103E3
:104F800001940007FCF75EF905B030BD0000111078
:104F9000000400500008005070B50E4D0446036830
:104FA000002210212846FCF711FA0022022128468F
:104FB0006368FCF70BFA002201212846A368FCF77E
:104FC00005FA0121002249030348E368FCF7FEF9D2
:104FD00070BD0000000400500008005070B5144679
:104FE0000E46054600F070FC304600F02DFC052012
:104FF00000F09AFC0120FBF779FE284600F0C8FA81
:10500000054600F047FFA54201DD002070BD0120EC
:1050100070BD0000F8B50025684605708A4C2079FF
:10502000012809D0022857D12046603001F006FE41
:10503000607901287ED1F6E06079002818D0012837
:105040004AD14021122001F001F9122000F06FFA3C
:105050006946087008787C4E8006403600286ADA77
:105060002021122001F0F2F8B07C002876D083E0F5
:10507000754E20363079012835D13F2000F057FA9F
:1050800069460870087880072DD40B213E2001F076
:10509000DDF810213F2001F0D9F83046543001F0FE
:1050A000CDFDB079002818D00D2000F040FA402145
:1050B00001430D2001F0CAF83046683001F086FD4A
:1050C00062480068002803D00069002800D08047AB
:1050D000357375732587E586F8BD5B48883001F028
:1050E000ADFD2571ECE7E18E594F00290AD1208FE3
:1050F000002807D1B078002831D0322000F017FA0C
:10510000E086E18E208F091AC9B2C01900F038FA82
:10511000E08E20874C48743001F090FDB079002873
:1051200023D00D2000F003FA402101430D2001F0AF
:105130008DF801E07BE02CE04348883001F046FD2B
:10514000424800680028C3D08768002FC0D00E22D4
:10515000B256E18E00233E48B847B9E70BE03A4823
:105160000121363000F00CFACBE737482571883042
:1051700001F064FDE4E725713348743001F05EFD11
:10518000324800680028A7D000690028A4D08047D2
:10519000F8BD192000F0CBF940B23076010605D5F4
:1051A000C043401C0006800E474201E00006870E07
:1051B0001A2000F0BCF92749A268002F09DA8A42B8
:1051C00003D901110818C01907E001110818C01906
:1051D00007E08A4203D9011108189D3802E0011145
:1051E0000818A4387083132000F0A1F93077014625
:1051F000174800F0C5F9B07C002800D1257112488D
:10520000743001F01BFD114800680028C0D084688C
:10521000002CBDD018231A22F356B25E317F0C4801
:10522000A0470DA00DE00821122001F00FF807485B
:10523000257100680028ABD000680028A8D08047FE
:1052400008A003F061FDF8BDDC020020040000208E
:10525000DC01002040DD4A1F7278446F6E650A0D44
:10526000000000007478446F6E650A0D00000000B5
:1052700070B5304C25462379E61F6A79E98E288F70
:10528000F93E2035012B11D0022B28D1002A26D13E
:105290000A1A23461B8FE97E304618188A4243DDDE
:1052A00000F0FBFF208FE97E40183BE0002A17D07A
:1052B000012A14D11F48743001F0C0FC8021122053
:1052C00000F0C4FF002020711B480068002806D0B1
:1052D000C068002803D0804718A003F015FD70BDFA
:1052E000002908D1002806D1A87800280FD0322044
:1052F00000F01DF9E086E18E208F0A1AA97E8A420D
:105300000BDD801900F03CF9208FA97ECCE709481D
:105310000121363000F034F9EDE7D1B2801900F008
:105320002FF904E0208770BDD1B200F0B6FFE08E07
:10533000F8E70000DC0200200400002072785469C5
:105340006D654F75740A0D0070B5294D294C2946BD
:1053500008462A7940304979C07B012A04D0022AC4
:1053600001D1002902D170BD002916D00129FAD13E
:105370000128F8D10221122000F068FF20680028DF
:10538000F1D040690028EED01C2000F0D0F8216850
:1053900080064969800E884770BD154C012620346F
:1053A0002673607B0028F7D12046683001F046FC68
:1053B0006673112000F0BBF840084042A0731B2028
:1053C00000F0B5F806021C2000F0B1F80643300AE0
:1053D0000102094A711A514380315043090A4018A9
:1053E00028630C2000F0A3F84009207570BD000070
:1053F000DC02002004000020093D000010B5124826
:10540000407900281FD001281DD1122000F08FF80C
:105410000E4CC0070BD00521122000F017FF2068AA
:10542000002810D0816900290DD001200AE0042154
:10543000122000F00BFF2068002804D081690029A9
:1054400001D00020884710BDDC02002004000020AD
:1054500005484079002806D103482030017B002907
:1054600001D1012101737047DC020020F8B51E4C08
:10547000002520791D4F01280AD0022807D1257167
:105480003868002803D04068002800D08047F8BD65
:105490006079002815D1144E0B21203635737573B1
:1054A0002587E5863E2000F0D1FE10213F2000F048
:1054B000CDFEB079012809D030462571683001F061
:1054C000BDFB38680028E2D0C068DDE70D2000F0A1
:1054D0002EF8402101430D2000F0B8FE024888302C
:1054E00001F074FBEDE70000DC0200200400002066
:1054F00070B50025012000F0E7F9FF21112000F030
:10550000A5FE052000F010FA00240120FBF7EEFBB9
:105510002C2000F00CF8C007C00FA040641C05430D
:10552000E4B2202CF1D300F0B5FC284670BD08B5DC
:105530000122694600F003F86846007808BDF8B516
:105540000446012715460E46FF0305200022394672
:105550000007FBF78DFF6006400EFCF715FC0024EA
:1055600005E00020FCF710FC3055641CE4B2AC42AE
:10557000F7D30520012239460007FBF779FFF8BD74
:105580000A4610B501460020FFF7D9FF10BD000004
:1055900010B5002804D0012808D00020C04310BD59
:1055A0001120FFF7C4FF4008404210BD07480849DA
:1055B0008068884204D91B20FFF7B9FF9D3810BDD1
:1055C0001B20FFF7B4FFA43810BD0000DC02002050
:1055D00040DD4A1F30B585B014216846FAF738FE21
:1055E0000120019003200E4D0024039002946A468E
:1055F00001212846FBF726FE002201212846FBF761
:1056000037FF0120FBF772FB6A460121284601940F
:10561000FBF718FE0620FBF769FB05B030BD000064
:1056200000080050F3B5384C06466179002081B07F
:10563000002902D0012964D128E000202087684693
:10564000314D017AE1862035A878002809D0322032
:1056500000F0FCFD6846027A501E3F2806D8EA7624
:105660000AE0012102A800F018FEF3E731462748BE
:1056700002F042FD2020E876E97E304600F00DFE83
:10568000208FE97E40182087A06A3AE01E4DBE2791
:105690004035687C01281FD03320FFF748FF384091
:1056A000411C332000F0D2FD1D213B2000F0CEFD37
:1056B0006846017A2977222000F0C8FD00210E20DB
:1056C00000F0C4FD00210D2000F0C0FD0120FFF717
:1056D0002EFF40070AD00EE03320FFF728FF3840A6
:1056E0000146332000F0B2FD1921DEE700F0E4FBB3
:1056F0000120FBF7FBFA6846017A304600F0CDFD49
:10570000606D00F0F5FBFEBDDC020020DC01002036
:1057100070B504460920FFF70AFF0C4D032C08D092
:10572000002028700520012202210007FBF79AFEC5
:1057300070BDC109064802D00122022101E0012208
:105740000421FBF78FFE0120287070BDDC020020D1
:1057500000080050F0B5384985B00A78824237D049
:10576000052500272D070324344E0870002831D06A
:1057700014216846FAF76CFD01946A460221284616
:1057800002970394FBF75EFD002202212846FBF7F7
:1057900069FE6A4602213046FBF754FD00220221D1
:1057A0003046FBF75FFE6A4604213046FBF74AFDB0
:1057B000002204213046FBF755FE2149214801F023
:1057C0008BF902211F4801F0EFF91E4801F0FEF9A4
:1057D00005B0F0BD1B4801F031FA01221103284643
:1057E000FBF740FE0320FBF781FA14216846FAF725
:1057F0002FFD012001906A4602210297039428465A
:10580000FBF720FD002202212846FBF72BFE6A460B
:1058100002213046FBF716FD002202213046FBF73D
:1058200021FE6A4604213046FBF70CFD00220421CC
:105830003046FBF717FECBE70000002000080050C1
:105840009D370008C801002070B505461048114E6C
:10585000856031462846FAF74BFC044630466043E3
:10586000281A0002711040183146FAF741FC210253
:1058700044182002010E062000F0E8FC2004010E6E
:10588000072000F0E3FCE1B2082000F0DFFC70BD6F
:10589000DC020020093D000070B50D46044600F012
:1058A00013F8002C04D0012C0AD12946232005E04E
:1058B00004488078002803D12946322000F0C6FC35
:1058C00070BD0000FC02002010B516494A798242E2
:1058D00026D04871012810D0002000F025F80120C2
:1058E000FFF725FE4106490E012000F0AFFC002124
:1058F000402000F0ABFC30210FE0002000F014F855
:105900000120FFF714FE80210143012000F09EFCDE
:105910000021402000F09AFC0021412000F096FC7C
:1059200010BD0000DC02002010B504000FD00020E4
:10593000FFF710FF2046FFF7EBFE0120FFF7F7FD12
:10594000C108C9002143012000F080FC10BD0120E6
:10595000FFF700FFF1E770B504460920FFF7E7FD08
:1059600006464D20FFF7E3FD05467006400E702108
:105970000843C1092AD0112C02DD07210D4302E0A2
:10598000ED08ED002D1DE943490703D0022C0CDA88
:1059900002240DE0052C01DA052402E0142C00DDC0
:1059A000142401090901641F05E0112C00DD1124F4
:1059B00001090901A41E2007000F0143092000F07E
:1059C00045FC29464D2000F041FC70BD0021C94333
:1059D0008C4201DA0C4602E00E2C00DD0E24010997
:1059E0000901641CE7E70000F8B58D4C06466079B4
:1059F0000027002802D0012825D125E0884D40202D
:105A00002035AF79FFF793FD8107890F40200C31D6
:105A100000F01CFC4120FFF78AFD3E2108400146B2
:105A2000C131412000F012FC3520FFF780FD8006D7
:105A3000800EA8761E210D2000F008FC002028739F
:105A400068732087E0867DE0754D4035687C0128CD
:105A500025D03320FFF76BFDBE210840411C3320C9
:105A600000F0F4FB1D213B2000F0F0FB206C092826
:105A70007ED23120FFF75BFD4106490E312000F058
:105A8000E5FB0021302000F0E1FB206C030001F079
:105A9000A0F90910171E252C333D3D3D4100332050
:105AA000FFF745FD41210143332000F0CFFB1921D1
:105AB000D9E748212F2000F0C9FB5A49A06821E00E
:105AC00044212F2000F0C2FB5749A0681AE044216E
:105AD0002F2000F0BBFB5549A06813E044212F2084
